{
	"MyToken.sol": {
		"MyToken": {
			"abi": [
				{
					"inputs": [
						{
							"internalType": "string",
							"name": "_name",
							"type": "string"
						},
						{
							"internalType": "string",
							"name": "_symbol",
							"type": "string"
						},
						{
							"internalType": "uint256",
							"name": "_totalSupply",
							"type": "uint256"
						}
					],
					"stateMutability": "nonpayable",
					"type": "constructor"
				},
				{
					"inputs": [
						{
							"internalType": "address",
							"name": "",
							"type": "address"
						}
					],
					"name": "balances",
					"outputs": [
						{
							"internalType": "uint256",
							"name": "",
							"type": "uint256"
						}
					],
					"stateMutability": "view",
					"type": "function"
				},
				{
					"inputs": [
						{
							"internalType": "address",
							"name": "_from",
							"type": "address"
						},
						{
							"internalType": "uint256",
							"name": "_value",
							"type": "uint256"
						}
					],
					"name": "burn",
					"outputs": [],
					"stateMutability": "nonpayable",
					"type": "function"
				},
				{
					"inputs": [
						{
							"internalType": "address",
							"name": "_to",
							"type": "address"
						},
						{
							"internalType": "uint256",
							"name": "_value",
							"type": "uint256"
						}
					],
					"name": "mint",
					"outputs": [],
					"stateMutability": "nonpayable",
					"type": "function"
				},
				{
					"inputs": [],
					"name": "name",
					"outputs": [
						{
							"internalType": "string",
							"name": "",
							"type": "string"
						}
					],
					"stateMutability": "view",
					"type": "function"
				},
				{
					"inputs": [],
					"name": "symbol",
					"outputs": [
						{
							"internalType": "string",
							"name": "",
							"type": "string"
						}
					],
					"stateMutability": "view",
					"type": "function"
				},
				{
					"inputs": [],
					"name": "totalSupply",
					"outputs": [
						{
							"internalType": "uint256",
							"name": "",
							"type": "uint256"
						}
					],
					"stateMutability": "view",
					"type": "function"
				}
			],
			"devdoc": {
				"kind": "dev",
				"methods": {},
				"version": 1
			},
			"evm": {
				"assembly": "    /* \"MyToken.sol\":59:1468  contract MyToken {\r... */\n  mstore(0x40, 0x80)\n    /* \"MyToken.sol\":336:627  constructor(string memory _name, string memory _symbol, uint256 _totalSupply) {\r... */\n  callvalue\n  dup1\n  iszero\n  tag_1\n  jumpi\n  0x00\n  dup1\n  revert\ntag_1:\n  pop\n  mload(0x40)\n  sub(codesize, bytecodeSize)\n  dup1\n  bytecodeSize\n  dup4\n  codecopy\n  dup2\n  dup2\n  add\n  0x40\n  mstore\n  dup2\n  add\n  swap1\n  tag_2\n  swap2\n  swap1\n  tag_3\n  jump\t// in\ntag_2:\n    /* \"MyToken.sol\":432:437  _name */\n  dup3\n    /* \"MyToken.sol\":425:429  name */\n  0x00\n    /* \"MyToken.sol\":425:437  name = _name */\n  swap1\n  dup1\n  mload\n  swap1\n  0x20\n  add\n  swap1\n  tag_6\n  swap3\n  swap2\n  swap1\n  tag_7\n  jump\t// in\ntag_6:\n  pop\n    /* \"MyToken.sol\":457:464  _symbol */\n  dup2\n    /* \"MyToken.sol\":448:454  symbol */\n  0x01\n    /* \"MyToken.sol\":448:464  symbol = _symbol */\n  swap1\n  dup1\n  mload\n  swap1\n  0x20\n  add\n  swap1\n  tag_8\n  swap3\n  swap2\n  swap1\n  tag_7\n  jump\t// in\ntag_8:\n  pop\n    /* \"MyToken.sol\":489:501  _totalSupply */\n  dup1\n    /* \"MyToken.sol\":475:486  totalSupply */\n  0x02\n    /* \"MyToken.sol\":475:501  totalSupply = _totalSupply */\n  dup2\n  swap1\n  sstore\n  pop\n    /* \"MyToken.sol\":535:547  _totalSupply */\n  dup1\n    /* \"MyToken.sol\":512:520  balances */\n  0x03\n    /* \"MyToken.sol\":512:532  balances[msg.sender] */\n  0x00\n    /* \"MyToken.sol\":521:531  msg.sender */\n  caller\n    /* \"MyToken.sol\":512:532  balances[msg.sender] */\n  0xffffffffffffffffffffffffffffffffffffffff\n  and\n  0xffffffffffffffffffffffffffffffffffffffff\n  and\n  dup2\n  mstore\n  0x20\n  add\n  swap1\n  dup2\n  mstore\n  0x20\n  add\n  0x00\n  keccak256\n    /* \"MyToken.sol\":512:547  balances[msg.sender] = _totalSupply */\n  dup2\n  swap1\n  sstore\n  pop\n    /* \"MyToken.sol\":336:627  constructor(string memory _name, string memory _symbol, uint256 _totalSupply) {\r... */\n  pop\n  pop\n  pop\n    /* \"MyToken.sol\":59:1468  contract MyToken {\r... */\n  jump(tag_9)\ntag_7:\n  dup3\n  dup1\n  sload\n  tag_10\n  swap1\n  tag_11\n  jump\t// in\ntag_10:\n  swap1\n  0x00\n  mstore\n  keccak256(0x00, 0x20)\n  swap1\n  0x1f\n  add\n  0x20\n  swap1\n  div\n  dup2\n  add\n  swap3\n  dup3\n  tag_13\n  jumpi\n  0x00\n  dup6\n  sstore\n  jump(tag_12)\ntag_13:\n  dup3\n  0x1f\n  lt\n  tag_14\n  jumpi\n  dup1\n  mload\n  not(0xff)\n  and\n  dup4\n  dup1\n  add\n  or\n  dup6\n  sstore\n  jump(tag_12)\ntag_14:\n  dup3\n  dup1\n  add\n  0x01\n  add\n  dup6\n  sstore\n  dup3\n  iszero\n  tag_12\n  jumpi\n  swap2\n  dup3\n  add\ntag_15:\n  dup3\n  dup2\n  gt\n  iszero\n  tag_16\n  jumpi\n  dup3\n  mload\n  dup3\n  sstore\n  swap2\n  0x20\n  add\n  swap2\n  swap1\n  0x01\n  add\n  swap1\n  jump(tag_15)\ntag_16:\ntag_12:\n  pop\n  swap1\n  pop\n  tag_17\n  swap2\n  swap1\n  tag_18\n  jump\t// in\ntag_17:\n  pop\n  swap1\n  jump\t// out\ntag_18:\ntag_19:\n  dup1\n  dup3\n  gt\n  iszero\n  tag_20\n  jumpi\n  0x00\n  dup2\n  0x00\n  swap1\n  sstore\n  pop\n  0x01\n  add\n  jump(tag_19)\ntag_20:\n  pop\n  swap1\n  jump\t// out\n    /* \"#utility.yul\":7:360   */\ntag_22:\n  0x00\n    /* \"#utility.yul\":121:186   */\n  tag_24\n    /* \"#utility.yul\":136:185   */\n  tag_25\n    /* \"#utility.yul\":178:184   */\n  dup5\n    /* \"#utility.yul\":136:185   */\n  tag_26\n  jump\t// in\ntag_25:\n    /* \"#utility.yul\":121:186   */\n  tag_27\n  jump\t// in\ntag_24:\n    /* \"#utility.yul\":112:186   */\n  swap1\n  pop\n    /* \"#utility.yul\":209:215   */\n  dup3\n    /* \"#utility.yul\":202:207   */\n  dup2\n    /* \"#utility.yul\":195:216   */\n  mstore\n    /* \"#utility.yul\":247:251   */\n  0x20\n    /* \"#utility.yul\":240:245   */\n  dup2\n    /* \"#utility.yul\":236:252   */\n  add\n    /* \"#utility.yul\":285:288   */\n  dup5\n    /* \"#utility.yul\":276:282   */\n  dup5\n    /* \"#utility.yul\":271:274   */\n  dup5\n    /* \"#utility.yul\":267:283   */\n  add\n    /* \"#utility.yul\":264:289   */\n  gt\n    /* \"#utility.yul\":261:263   */\n  iszero\n  tag_28\n  jumpi\n    /* \"#utility.yul\":302:303   */\n  0x00\n    /* \"#utility.yul\":299:300   */\n  dup1\n    /* \"#utility.yul\":292:304   */\n  revert\n    /* \"#utility.yul\":261:263   */\ntag_28:\n    /* \"#utility.yul\":315:354   */\n  tag_29\n    /* \"#utility.yul\":347:353   */\n  dup5\n    /* \"#utility.yul\":342:345   */\n  dup3\n    /* \"#utility.yul\":337:340   */\n  dup6\n    /* \"#utility.yul\":315:354   */\n  tag_30\n  jump\t// in\ntag_29:\n    /* \"#utility.yul\":102:360   */\n  pop\n  swap4\n  swap3\n  pop\n  pop\n  pop\n  jump\t// out\n    /* \"#utility.yul\":380:668   */\ntag_31:\n  0x00\n    /* \"#utility.yul\":496:499   */\n  dup3\n    /* \"#utility.yul\":489:493   */\n  0x1f\n    /* \"#utility.yul\":481:487   */\n  dup4\n    /* \"#utility.yul\":477:494   */\n  add\n    /* \"#utility.yul\":473:500   */\n  slt\n    /* \"#utility.yul\":463:465   */\n  tag_33\n  jumpi\n    /* \"#utility.yul\":514:515   */\n  0x00\n    /* \"#utility.yul\":511:512   */\n  dup1\n    /* \"#utility.yul\":504:516   */\n  revert\n    /* \"#utility.yul\":463:465   */\ntag_33:\n    /* \"#utility.yul\":547:553   */\n  dup2\n    /* \"#utility.yul\":541:554   */\n  mload\n    /* \"#utility.yul\":572:662   */\n  tag_34\n    /* \"#utility.yul\":658:661   */\n  dup5\n    /* \"#utility.yul\":650:656   */\n  dup3\n    /* \"#utility.yul\":643:647   */\n  0x20\n    /* \"#utility.yul\":635:641   */\n  dup7\n    /* \"#utility.yul\":631:648   */\n  add\n    /* \"#utility.yul\":572:662   */\n  tag_22\n  jump\t// in\ntag_34:\n    /* \"#utility.yul\":563:662   */\n  swap2\n  pop\n    /* \"#utility.yul\":453:668   */\n  pop\n  swap3\n  swap2\n  pop\n  pop\n  jump\t// out\n    /* \"#utility.yul\":674:817   */\ntag_35:\n  0x00\n    /* \"#utility.yul\":762:768   */\n  dup2\n    /* \"#utility.yul\":756:769   */\n  mload\n    /* \"#utility.yul\":747:769   */\n  swap1\n  pop\n    /* \"#utility.yul\":778:811   */\n  tag_37\n    /* \"#utility.yul\":805:810   */\n  dup2\n    /* \"#utility.yul\":778:811   */\n  tag_38\n  jump\t// in\ntag_37:\n    /* \"#utility.yul\":737:817   */\n  swap3\n  swap2\n  pop\n  pop\n  jump\t// out\n    /* \"#utility.yul\":823:1631   */\ntag_3:\n  0x00\n  dup1\n  0x00\n    /* \"#utility.yul\":996:998   */\n  0x60\n    /* \"#utility.yul\":984:993   */\n  dup5\n    /* \"#utility.yul\":975:982   */\n  dup7\n    /* \"#utility.yul\":971:994   */\n  sub\n    /* \"#utility.yul\":967:999   */\n  slt\n    /* \"#utility.yul\":964:966   */\n  iszero\n  tag_40\n  jumpi\n    /* \"#utility.yul\":1012:1013   */\n  0x00\n    /* \"#utility.yul\":1009:1010   */\n  dup1\n    /* \"#utility.yul\":1002:1014   */\n  revert\n    /* \"#utility.yul\":964:966   */\ntag_40:\n    /* \"#utility.yul\":1076:1077   */\n  0x00\n    /* \"#utility.yul\":1065:1074   */\n  dup5\n    /* \"#utility.yul\":1061:1078   */\n  add\n    /* \"#utility.yul\":1055:1079   */\n  mload\n    /* \"#utility.yul\":1106:1124   */\n  0xffffffffffffffff\n    /* \"#utility.yul\":1098:1104   */\n  dup2\n    /* \"#utility.yul\":1095:1125   */\n  gt\n    /* \"#utility.yul\":1092:1094   */\n  iszero\n  tag_41\n  jumpi\n    /* \"#utility.yul\":1138:1139   */\n  0x00\n    /* \"#utility.yul\":1135:1136   */\n  dup1\n    /* \"#utility.yul\":1128:1140   */\n  revert\n    /* \"#utility.yul\":1092:1094   */\ntag_41:\n    /* \"#utility.yul\":1166:1240   */\n  tag_42\n    /* \"#utility.yul\":1232:1239   */\n  dup7\n    /* \"#utility.yul\":1223:1229   */\n  dup3\n    /* \"#utility.yul\":1212:1221   */\n  dup8\n    /* \"#utility.yul\":1208:1230   */\n  add\n    /* \"#utility.yul\":1166:1240   */\n  tag_31\n  jump\t// in\ntag_42:\n    /* \"#utility.yul\":1156:1240   */\n  swap4\n  pop\n    /* \"#utility.yul\":1026:1250   */\n  pop\n    /* \"#utility.yul\":1310:1312   */\n  0x20\n    /* \"#utility.yul\":1299:1308   */\n  dup5\n    /* \"#utility.yul\":1295:1313   */\n  add\n    /* \"#utility.yul\":1289:1314   */\n  mload\n    /* \"#utility.yul\":1341:1359   */\n  0xffffffffffffffff\n    /* \"#utility.yul\":1333:1339   */\n  dup2\n    /* \"#utility.yul\":1330:1360   */\n  gt\n    /* \"#utility.yul\":1327:1329   */\n  iszero\n  tag_43\n  jumpi\n    /* \"#utility.yul\":1373:1374   */\n  0x00\n    /* \"#utility.yul\":1370:1371   */\n  dup1\n    /* \"#utility.yul\":1363:1375   */\n  revert\n    /* \"#utility.yul\":1327:1329   */\ntag_43:\n    /* \"#utility.yul\":1401:1475   */\n  tag_44\n    /* \"#utility.yul\":1467:1474   */\n  dup7\n    /* \"#utility.yul\":1458:1464   */\n  dup3\n    /* \"#utility.yul\":1447:1456   */\n  dup8\n    /* \"#utility.yul\":1443:1465   */\n  add\n    /* \"#utility.yul\":1401:1475   */\n  tag_31\n  jump\t// in\ntag_44:\n    /* \"#utility.yul\":1391:1475   */\n  swap3\n  pop\n    /* \"#utility.yul\":1260:1485   */\n  pop\n    /* \"#utility.yul\":1524:1526   */\n  0x40\n    /* \"#utility.yul\":1550:1614   */\n  tag_45\n    /* \"#utility.yul\":1606:1613   */\n  dup7\n    /* \"#utility.yul\":1597:1603   */\n  dup3\n    /* \"#utility.yul\":1586:1595   */\n  dup8\n    /* \"#utility.yul\":1582:1604   */\n  add\n    /* \"#utility.yul\":1550:1614   */\n  tag_35\n  jump\t// in\ntag_45:\n    /* \"#utility.yul\":1540:1614   */\n  swap2\n  pop\n    /* \"#utility.yul\":1495:1624   */\n  pop\n    /* \"#utility.yul\":954:1631   */\n  swap3\n  pop\n  swap3\n  pop\n  swap3\n  jump\t// out\n    /* \"#utility.yul\":1637:1920   */\ntag_27:\n  0x00\n    /* \"#utility.yul\":1703:1705   */\n  0x40\n    /* \"#utility.yul\":1697:1706   */\n  mload\n    /* \"#utility.yul\":1687:1706   */\n  swap1\n  pop\n    /* \"#utility.yul\":1745:1749   */\n  dup2\n    /* \"#utility.yul\":1737:1743   */\n  dup2\n    /* \"#utility.yul\":1733:1750   */\n  add\n    /* \"#utility.yul\":1852:1858   */\n  dup2\n    /* \"#utility.yul\":1840:1850   */\n  dup2\n    /* \"#utility.yul\":1837:1859   */\n  lt\n    /* \"#utility.yul\":1816:1834   */\n  0xffffffffffffffff\n    /* \"#utility.yul\":1804:1814   */\n  dup3\n    /* \"#utility.yul\":1801:1835   */\n  gt\n    /* \"#utility.yul\":1798:1860   */\n  or\n    /* \"#utility.yul\":1795:1797   */\n  iszero\n  tag_47\n  jumpi\n    /* \"#utility.yul\":1863:1881   */\n  tag_48\n  tag_49\n  jump\t// in\ntag_48:\n    /* \"#utility.yul\":1795:1797   */\ntag_47:\n    /* \"#utility.yul\":1903:1913   */\n  dup1\n    /* \"#utility.yul\":1899:1901   */\n  0x40\n    /* \"#utility.yul\":1892:1914   */\n  mstore\n    /* \"#utility.yul\":1677:1920   */\n  pop\n  swap2\n  swap1\n  pop\n  jump\t// out\n    /* \"#utility.yul\":1926:2258   */\ntag_26:\n  0x00\n    /* \"#utility.yul\":2078:2096   */\n  0xffffffffffffffff\n    /* \"#utility.yul\":2070:2076   */\n  dup3\n    /* \"#utility.yul\":2067:2097   */\n  gt\n    /* \"#utility.yul\":2064:2066   */\n  iszero\n  tag_51\n  jumpi\n    /* \"#utility.yul\":2100:2118   */\n  tag_52\n  tag_49\n  jump\t// in\ntag_52:\n    /* \"#utility.yul\":2064:2066   */\ntag_51:\n    /* \"#utility.yul\":2185:2189   */\n  0x1f\n    /* \"#utility.yul\":2181:2190   */\n  not\n    /* \"#utility.yul\":2174:2178   */\n  0x1f\n    /* \"#utility.yul\":2166:2172   */\n  dup4\n    /* \"#utility.yul\":2162:2179   */\n  add\n    /* \"#utility.yul\":2158:2191   */\n  and\n    /* \"#utility.yul\":2150:2191   */\n  swap1\n  pop\n    /* \"#utility.yul\":2246:2250   */\n  0x20\n    /* \"#utility.yul\":2240:2244   */\n  dup2\n    /* \"#utility.yul\":2236:2251   */\n  add\n    /* \"#utility.yul\":2228:2251   */\n  swap1\n  pop\n    /* \"#utility.yul\":1993:2258   */\n  swap2\n  swap1\n  pop\n  jump\t// out\n    /* \"#utility.yul\":2264:2341   */\ntag_53:\n  0x00\n    /* \"#utility.yul\":2330:2335   */\n  dup2\n    /* \"#utility.yul\":2319:2335   */\n  swap1\n  pop\n    /* \"#utility.yul\":2309:2341   */\n  swap2\n  swap1\n  pop\n  jump\t// out\n    /* \"#utility.yul\":2347:2654   */\ntag_30:\n    /* \"#utility.yul\":2415:2416   */\n  0x00\n    /* \"#utility.yul\":2425:2538   */\ntag_56:\n    /* \"#utility.yul\":2439:2445   */\n  dup4\n    /* \"#utility.yul\":2436:2437   */\n  dup2\n    /* \"#utility.yul\":2433:2446   */\n  lt\n    /* \"#utility.yul\":2425:2538   */\n  iszero\n  tag_58\n  jumpi\n    /* \"#utility.yul\":2524:2525   */\n  dup1\n    /* \"#utility.yul\":2519:2522   */\n  dup3\n    /* \"#utility.yul\":2515:2526   */\n  add\n    /* \"#utility.yul\":2509:2527   */\n  mload\n    /* \"#utility.yul\":2505:2506   */\n  dup2\n    /* \"#utility.yul\":2500:2503   */\n  dup5\n    /* \"#utility.yul\":2496:2507   */\n  add\n    /* \"#utility.yul\":2489:2528   */\n  mstore\n    /* \"#utility.yul\":2461:2463   */\n  0x20\n    /* \"#utility.yul\":2458:2459   */\n  dup2\n    /* \"#utility.yul\":2454:2464   */\n  add\n    /* \"#utility.yul\":2449:2464   */\n  swap1\n  pop\n    /* \"#utility.yul\":2425:2538   */\n  jump(tag_56)\ntag_58:\n    /* \"#utility.yul\":2556:2562   */\n  dup4\n    /* \"#utility.yul\":2553:2554   */\n  dup2\n    /* \"#utility.yul\":2550:2563   */\n  gt\n    /* \"#utility.yul\":2547:2549   */\n  iszero\n  tag_59\n  jumpi\n    /* \"#utility.yul\":2636:2637   */\n  0x00\n    /* \"#utility.yul\":2627:2633   */\n  dup5\n    /* \"#utility.yul\":2622:2625   */\n  dup5\n    /* \"#utility.yul\":2618:2634   */\n  add\n    /* \"#utility.yul\":2611:2638   */\n  mstore\n    /* \"#utility.yul\":2547:2549   */\ntag_59:\n    /* \"#utility.yul\":2396:2654   */\n  pop\n  pop\n  pop\n  pop\n  jump\t// out\n    /* \"#utility.yul\":2660:2980   */\ntag_11:\n  0x00\n    /* \"#utility.yul\":2741:2742   */\n  0x02\n    /* \"#utility.yul\":2735:2739   */\n  dup3\n    /* \"#utility.yul\":2731:2743   */\n  div\n    /* \"#utility.yul\":2721:2743   */\n  swap1\n  pop\n    /* \"#utility.yul\":2788:2789   */\n  0x01\n    /* \"#utility.yul\":2782:2786   */\n  dup3\n    /* \"#utility.yul\":2778:2790   */\n  and\n    /* \"#utility.yul\":2809:2827   */\n  dup1\n    /* \"#utility.yul\":2799:2801   */\n  tag_61\n  jumpi\n    /* \"#utility.yul\":2865:2869   */\n  0x7f\n    /* \"#utility.yul\":2857:2863   */\n  dup3\n    /* \"#utility.yul\":2853:2870   */\n  and\n    /* \"#utility.yul\":2843:2870   */\n  swap2\n  pop\n    /* \"#utility.yul\":2799:2801   */\ntag_61:\n    /* \"#utility.yul\":2927:2929   */\n  0x20\n    /* \"#utility.yul\":2919:2925   */\n  dup3\n    /* \"#utility.yul\":2916:2930   */\n  lt\n    /* \"#utility.yul\":2896:2914   */\n  dup2\n    /* \"#utility.yul\":2893:2931   */\n  eq\n    /* \"#utility.yul\":2890:2892   */\n  iszero\n  tag_62\n  jumpi\n    /* \"#utility.yul\":2946:2964   */\n  tag_63\n  tag_64\n  jump\t// in\ntag_63:\n    /* \"#utility.yul\":2890:2892   */\ntag_62:\n    /* \"#utility.yul\":2711:2980   */\n  pop\n  swap2\n  swap1\n  pop\n  jump\t// out\n    /* \"#utility.yul\":2986:3166   */\ntag_64:\n    /* \"#utility.yul\":3034:3111   */\n  0x4e487b7100000000000000000000000000000000000000000000000000000000\n    /* \"#utility.yul\":3031:3032   */\n  0x00\n    /* \"#utility.yul\":3024:3112   */\n  mstore\n    /* \"#utility.yul\":3131:3135   */\n  0x22\n    /* \"#utility.yul\":3128:3129   */\n  0x04\n    /* \"#utility.yul\":3121:3136   */\n  mstore\n    /* \"#utility.yul\":3155:3159   */\n  0x24\n    /* \"#utility.yul\":3152:3153   */\n  0x00\n    /* \"#utility.yul\":3145:3160   */\n  revert\n    /* \"#utility.yul\":3172:3352   */\ntag_49:\n    /* \"#utility.yul\":3220:3297   */\n  0x4e487b7100000000000000000000000000000000000000000000000000000000\n    /* \"#utility.yul\":3217:3218   */\n  0x00\n    /* \"#utility.yul\":3210:3298   */\n  mstore\n    /* \"#utility.yul\":3317:3321   */\n  0x41\n    /* \"#utility.yul\":3314:3315   */\n  0x04\n    /* \"#utility.yul\":3307:3322   */\n  mstore\n    /* \"#utility.yul\":3341:3345   */\n  0x24\n    /* \"#utility.yul\":3338:3339   */\n  0x00\n    /* \"#utility.yul\":3331:3346   */\n  revert\n    /* \"#utility.yul\":3358:3480   */\ntag_38:\n    /* \"#utility.yul\":3431:3455   */\n  tag_68\n    /* \"#utility.yul\":3449:3454   */\n  dup2\n    /* \"#utility.yul\":3431:3455   */\n  tag_53\n  jump\t// in\ntag_68:\n    /* \"#utility.yul\":3424:3429   */\n  dup2\n    /* \"#utility.yul\":3421:3456   */\n  eq\n    /* \"#utility.yul\":3411:3413   */\n  tag_69\n  jumpi\n    /* \"#utility.yul\":3470:3471   */\n  0x00\n    /* \"#utility.yul\":3467:3468   */\n  dup1\n    /* \"#utility.yul\":3460:3472   */\n  revert\n    /* \"#utility.yul\":3411:3413   */\ntag_69:\n    /* \"#utility.yul\":3401:3480   */\n  pop\n  jump\t// out\n    /* \"MyToken.sol\":59:1468  contract MyToken {\r... */\ntag_9:\n  dataSize(sub_0)\n  dup1\n  dataOffset(sub_0)\n  0x00\n  codecopy\n  0x00\n  return\nstop\n\nsub_0: assembly {\n        /* \"MyToken.sol\":59:1468  contract MyToken {\r... */\n      mstore(0x40, 0x80)\n      callvalue\n      dup1\n      iszero\n      tag_1\n      jumpi\n      0x00\n      dup1\n      revert\n    tag_1:\n      pop\n      jumpi(tag_2, lt(calldatasize, 0x04))\n      shr(0xe0, calldataload(0x00))\n      dup1\n      0x06fdde03\n      eq\n      tag_3\n      jumpi\n      dup1\n      0x18160ddd\n      eq\n      tag_4\n      jumpi\n      dup1\n      0x27e235e3\n      eq\n      tag_5\n      jumpi\n      dup1\n      0x40c10f19\n      eq\n      tag_6\n      jumpi\n      dup1\n      0x95d89b41\n      eq\n      tag_7\n      jumpi\n      dup1\n      0x9dc29fac\n      eq\n      tag_8\n      jumpi\n    tag_2:\n      0x00\n      dup1\n      revert\n        /* \"MyToken.sol\":83:101  string public name */\n    tag_3:\n      tag_9\n      tag_10\n      jump\t// in\n    tag_9:\n      mload(0x40)\n      tag_11\n      swap2\n      swap1\n      tag_12\n      jump\t// in\n    tag_11:\n      mload(0x40)\n      dup1\n      swap2\n      sub\n      swap1\n      return\n        /* \"MyToken.sol\":179:205  uint256 public totalSupply */\n    tag_4:\n      tag_13\n      tag_14\n      jump\t// in\n    tag_13:\n      mload(0x40)\n      tag_15\n      swap2\n      swap1\n      tag_16\n      jump\t// in\n    tag_15:\n      mload(0x40)\n      dup1\n      swap2\n      sub\n      swap1\n      return\n        /* \"MyToken.sol\":241:285  mapping (address => uint256) public balances */\n    tag_5:\n      tag_17\n      0x04\n      dup1\n      calldatasize\n      sub\n      dup2\n      add\n      swap1\n      tag_18\n      swap2\n      swap1\n      tag_19\n      jump\t// in\n    tag_18:\n      tag_20\n      jump\t// in\n    tag_17:\n      mload(0x40)\n      tag_21\n      swap2\n      swap1\n      tag_16\n      jump\t// in\n    tag_21:\n      mload(0x40)\n      dup1\n      swap2\n      sub\n      swap1\n      return\n        /* \"MyToken.sol\":635:968  function mint(address _to, uint256 _value) public {\r... */\n    tag_6:\n      tag_22\n      0x04\n      dup1\n      calldatasize\n      sub\n      dup2\n      add\n      swap1\n      tag_23\n      swap2\n      swap1\n      tag_24\n      jump\t// in\n    tag_23:\n      tag_25\n      jump\t// in\n    tag_22:\n      stop\n        /* \"MyToken.sol\":129:149  string public symbol */\n    tag_7:\n      tag_26\n      tag_27\n      jump\t// in\n    tag_26:\n      mload(0x40)\n      tag_28\n      swap2\n      swap1\n      tag_12\n      jump\t// in\n    tag_28:\n      mload(0x40)\n      dup1\n      swap2\n      sub\n      swap1\n      return\n        /* \"MyToken.sol\":976:1465  function burn(address _from, uint256 _value) public {\r... */\n    tag_8:\n      tag_29\n      0x04\n      dup1\n      calldatasize\n      sub\n      dup2\n      add\n      swap1\n      tag_30\n      swap2\n      swap1\n      tag_24\n      jump\t// in\n    tag_30:\n      tag_31\n      jump\t// in\n    tag_29:\n      stop\n        /* \"MyToken.sol\":83:101  string public name */\n    tag_10:\n      0x00\n      dup1\n      sload\n      tag_32\n      swap1\n      tag_33\n      jump\t// in\n    tag_32:\n      dup1\n      0x1f\n      add\n      0x20\n      dup1\n      swap2\n      div\n      mul\n      0x20\n      add\n      mload(0x40)\n      swap1\n      dup2\n      add\n      0x40\n      mstore\n      dup1\n      swap3\n      swap2\n      swap1\n      dup2\n      dup2\n      mstore\n      0x20\n      add\n      dup3\n      dup1\n      sload\n      tag_34\n      swap1\n      tag_33\n      jump\t// in\n    tag_34:\n      dup1\n      iszero\n      tag_35\n      jumpi\n      dup1\n      0x1f\n      lt\n      tag_36\n      jumpi\n      0x0100\n      dup1\n      dup4\n      sload\n      div\n      mul\n      dup4\n      mstore\n      swap2\n      0x20\n      add\n      swap2\n      jump(tag_35)\n    tag_36:\n      dup3\n      add\n      swap2\n      swap1\n      0x00\n      mstore\n      keccak256(0x00, 0x20)\n      swap1\n    tag_37:\n      dup2\n      sload\n      dup2\n      mstore\n      swap1\n      0x01\n      add\n      swap1\n      0x20\n      add\n      dup1\n      dup4\n      gt\n      tag_37\n      jumpi\n      dup3\n      swap1\n      sub\n      0x1f\n      and\n      dup3\n      add\n      swap2\n    tag_35:\n      pop\n      pop\n      pop\n      pop\n      pop\n      dup2\n      jump\t// out\n        /* \"MyToken.sol\":179:205  uint256 public totalSupply */\n    tag_14:\n      sload(0x02)\n      dup2\n      jump\t// out\n        /* \"MyToken.sol\":241:285  mapping (address => uint256) public balances */\n    tag_20:\n      mstore(0x20, 0x03)\n      dup1\n      0x00\n      mstore\n      keccak256(0x00, 0x40)\n      0x00\n      swap2\n      pop\n      swap1\n      pop\n      sload\n      dup2\n      jump\t// out\n        /* \"MyToken.sol\":635:968  function mint(address _to, uint256 _value) public {\r... */\n    tag_25:\n        /* \"MyToken.sol\":719:720  0 */\n      0x00\n        /* \"MyToken.sol\":704:721  _to != address(0) */\n      0xffffffffffffffffffffffffffffffffffffffff\n      and\n        /* \"MyToken.sol\":704:707  _to */\n      dup3\n        /* \"MyToken.sol\":704:721  _to != address(0) */\n      0xffffffffffffffffffffffffffffffffffffffff\n      and\n      eq\n      iszero\n        /* \"MyToken.sol\":696:741  require(_to != address(0), \"Invalid address\") */\n      tag_39\n      jumpi\n      mload(0x40)\n      0x08c379a000000000000000000000000000000000000000000000000000000000\n      dup2\n      mstore\n      0x04\n      add\n      tag_40\n      swap1\n      tag_41\n      jump\t// in\n    tag_40:\n      mload(0x40)\n      dup1\n      swap2\n      sub\n      swap1\n      revert\n    tag_39:\n        /* \"MyToken.sol\":812:818  _value */\n      dup1\n        /* \"MyToken.sol\":797:808  totalSupply */\n      0x02\n      0x00\n        /* \"MyToken.sol\":797:818  totalSupply += _value */\n      dup3\n      dup3\n      sload\n      tag_42\n      swap2\n      swap1\n      tag_43\n      jump\t// in\n    tag_42:\n      swap3\n      pop\n      pop\n      dup2\n      swap1\n      sstore\n      pop\n        /* \"MyToken.sol\":894:900  _value */\n      dup1\n        /* \"MyToken.sol\":877:885  balances */\n      0x03\n        /* \"MyToken.sol\":877:890  balances[_to] */\n      0x00\n        /* \"MyToken.sol\":886:889  _to */\n      dup5\n        /* \"MyToken.sol\":877:890  balances[_to] */\n      0xffffffffffffffffffffffffffffffffffffffff\n      and\n      0xffffffffffffffffffffffffffffffffffffffff\n      and\n      dup2\n      mstore\n      0x20\n      add\n      swap1\n      dup2\n      mstore\n      0x20\n      add\n      0x00\n      keccak256\n      0x00\n        /* \"MyToken.sol\":877:900  balances[_to] += _value */\n      dup3\n      dup3\n      sload\n      tag_44\n      swap2\n      swap1\n      tag_43\n      jump\t// in\n    tag_44:\n      swap3\n      pop\n      pop\n      dup2\n      swap1\n      sstore\n      pop\n        /* \"MyToken.sol\":635:968  function mint(address _to, uint256 _value) public {\r... */\n      pop\n      pop\n      jump\t// out\n        /* \"MyToken.sol\":129:149  string public symbol */\n    tag_27:\n      0x01\n      dup1\n      sload\n      tag_45\n      swap1\n      tag_33\n      jump\t// in\n    tag_45:\n      dup1\n      0x1f\n      add\n      0x20\n      dup1\n      swap2\n      div\n      mul\n      0x20\n      add\n      mload(0x40)\n      swap1\n      dup2\n      add\n      0x40\n      mstore\n      dup1\n      swap3\n      swap2\n      swap1\n      dup2\n      dup2\n      mstore\n      0x20\n      add\n      dup3\n      dup1\n      sload\n      tag_46\n      swap1\n      tag_33\n      jump\t// in\n    tag_46:\n      dup1\n      iszero\n      tag_47\n      jumpi\n      dup1\n      0x1f\n      lt\n      tag_48\n      jumpi\n      0x0100\n      dup1\n      dup4\n      sload\n      div\n      mul\n      dup4\n      mstore\n      swap2\n      0x20\n      add\n      swap2\n      jump(tag_47)\n    tag_48:\n      dup3\n      add\n      swap2\n      swap1\n      0x00\n      mstore\n      keccak256(0x00, 0x20)\n      swap1\n    tag_49:\n      dup2\n      sload\n      dup2\n      mstore\n      swap1\n      0x01\n      add\n      swap1\n      0x20\n      add\n      dup1\n      dup4\n      gt\n      tag_49\n      jumpi\n      dup3\n      swap1\n      sub\n      0x1f\n      and\n      dup3\n      add\n      swap2\n    tag_47:\n      pop\n      pop\n      pop\n      pop\n      pop\n      dup2\n      jump\t// out\n        /* \"MyToken.sol\":976:1465  function burn(address _from, uint256 _value) public {\r... */\n    tag_31:\n        /* \"MyToken.sol\":1064:1065  0 */\n      0x00\n        /* \"MyToken.sol\":1047:1066  _from != address(0) */\n      0xffffffffffffffffffffffffffffffffffffffff\n      and\n        /* \"MyToken.sol\":1047:1052  _from */\n      dup3\n        /* \"MyToken.sol\":1047:1066  _from != address(0) */\n      0xffffffffffffffffffffffffffffffffffffffff\n      and\n      eq\n      iszero\n        /* \"MyToken.sol\":1039:1086  require(_from != address(0), \"Invalid address\") */\n      tag_51\n      jumpi\n      mload(0x40)\n      0x08c379a000000000000000000000000000000000000000000000000000000000\n      dup2\n      mstore\n      0x04\n      add\n      tag_52\n      swap1\n      tag_41\n      jump\t// in\n    tag_52:\n      mload(0x40)\n      dup1\n      swap2\n      sub\n      swap1\n      revert\n    tag_51:\n        /* \"MyToken.sol\":1171:1177  _value */\n      dup1\n        /* \"MyToken.sol\":1152:1160  balances */\n      0x03\n        /* \"MyToken.sol\":1152:1167  balances[_from] */\n      0x00\n        /* \"MyToken.sol\":1161:1166  _from */\n      dup5\n        /* \"MyToken.sol\":1152:1167  balances[_from] */\n      0xffffffffffffffffffffffffffffffffffffffff\n      and\n      0xffffffffffffffffffffffffffffffffffffffff\n      and\n      dup2\n      mstore\n      0x20\n      add\n      swap1\n      dup2\n      mstore\n      0x20\n      add\n      0x00\n      keccak256\n      sload\n        /* \"MyToken.sol\":1152:1177  balances[_from] >= _value */\n      lt\n      iszero\n        /* \"MyToken.sol\":1144:1202  require(balances[_from] >= _value, \"Insufficient balance\") */\n      tag_53\n      jumpi\n      mload(0x40)\n      0x08c379a000000000000000000000000000000000000000000000000000000000\n      dup2\n      mstore\n      0x04\n      add\n      tag_54\n      swap1\n      tag_55\n      jump\t// in\n    tag_54:\n      mload(0x40)\n      dup1\n      swap2\n      sub\n      swap1\n      revert\n    tag_53:\n        /* \"MyToken.sol\":1309:1315  _value */\n      dup1\n        /* \"MyToken.sol\":1294:1305  totalSupply */\n      0x02\n      0x00\n        /* \"MyToken.sol\":1294:1315  totalSupply -= _value */\n      dup3\n      dup3\n      sload\n      tag_56\n      swap2\n      swap1\n      tag_57\n      jump\t// in\n    tag_56:\n      swap3\n      pop\n      pop\n      dup2\n      swap1\n      sstore\n      pop\n        /* \"MyToken.sol\":1393:1399  _value */\n      dup1\n        /* \"MyToken.sol\":1374:1382  balances */\n      0x03\n        /* \"MyToken.sol\":1374:1389  balances[_from] */\n      0x00\n        /* \"MyToken.sol\":1383:1388  _from */\n      dup5\n        /* \"MyToken.sol\":1374:1389  balances[_from] */\n      0xffffffffffffffffffffffffffffffffffffffff\n      and\n      0xffffffffffffffffffffffffffffffffffffffff\n      and\n      dup2\n      mstore\n      0x20\n      add\n      swap1\n      dup2\n      mstore\n      0x20\n      add\n      0x00\n      keccak256\n      0x00\n        /* \"MyToken.sol\":1374:1399  balances[_from] -= _value */\n      dup3\n      dup3\n      sload\n      tag_58\n      swap2\n      swap1\n      tag_57\n      jump\t// in\n    tag_58:\n      swap3\n      pop\n      pop\n      dup2\n      swap1\n      sstore\n      pop\n        /* \"MyToken.sol\":976:1465  function burn(address _from, uint256 _value) public {\r... */\n      pop\n      pop\n      jump\t// out\n        /* \"#utility.yul\":7:146   */\n    tag_60:\n      0x00\n        /* \"#utility.yul\":91:97   */\n      dup2\n        /* \"#utility.yul\":78:98   */\n      calldataload\n        /* \"#utility.yul\":69:98   */\n      swap1\n      pop\n        /* \"#utility.yul\":107:140   */\n      tag_62\n        /* \"#utility.yul\":134:139   */\n      dup2\n        /* \"#utility.yul\":107:140   */\n      tag_63\n      jump\t// in\n    tag_62:\n        /* \"#utility.yul\":59:146   */\n      swap3\n      swap2\n      pop\n      pop\n      jump\t// out\n        /* \"#utility.yul\":152:291   */\n    tag_64:\n      0x00\n        /* \"#utility.yul\":236:242   */\n      dup2\n        /* \"#utility.yul\":223:243   */\n      calldataload\n        /* \"#utility.yul\":214:243   */\n      swap1\n      pop\n        /* \"#utility.yul\":252:285   */\n      tag_66\n        /* \"#utility.yul\":279:284   */\n      dup2\n        /* \"#utility.yul\":252:285   */\n      tag_67\n      jump\t// in\n    tag_66:\n        /* \"#utility.yul\":204:291   */\n      swap3\n      swap2\n      pop\n      pop\n      jump\t// out\n        /* \"#utility.yul\":297:559   */\n    tag_19:\n      0x00\n        /* \"#utility.yul\":405:407   */\n      0x20\n        /* \"#utility.yul\":393:402   */\n      dup3\n        /* \"#utility.yul\":384:391   */\n      dup5\n        /* \"#utility.yul\":380:403   */\n      sub\n        /* \"#utility.yul\":376:408   */\n      slt\n        /* \"#utility.yul\":373:375   */\n      iszero\n      tag_69\n      jumpi\n        /* \"#utility.yul\":421:422   */\n      0x00\n        /* \"#utility.yul\":418:419   */\n      dup1\n        /* \"#utility.yul\":411:423   */\n      revert\n        /* \"#utility.yul\":373:375   */\n    tag_69:\n        /* \"#utility.yul\":464:465   */\n      0x00\n        /* \"#utility.yul\":489:542   */\n      tag_70\n        /* \"#utility.yul\":534:541   */\n      dup5\n        /* \"#utility.yul\":525:531   */\n      dup3\n        /* \"#utility.yul\":514:523   */\n      dup6\n        /* \"#utility.yul\":510:532   */\n      add\n        /* \"#utility.yul\":489:542   */\n      tag_60\n      jump\t// in\n    tag_70:\n        /* \"#utility.yul\":479:542   */\n      swap2\n      pop\n        /* \"#utility.yul\":435:552   */\n      pop\n        /* \"#utility.yul\":363:559   */\n      swap3\n      swap2\n      pop\n      pop\n      jump\t// out\n        /* \"#utility.yul\":565:972   */\n    tag_24:\n      0x00\n      dup1\n        /* \"#utility.yul\":690:692   */\n      0x40\n        /* \"#utility.yul\":678:687   */\n      dup4\n        /* \"#utility.yul\":669:676   */\n      dup6\n        /* \"#utility.yul\":665:688   */\n      sub\n        /* \"#utility.yul\":661:693   */\n      slt\n        /* \"#utility.yul\":658:660   */\n      iszero\n      tag_72\n      jumpi\n        /* \"#utility.yul\":706:707   */\n      0x00\n        /* \"#utility.yul\":703:704   */\n      dup1\n        /* \"#utility.yul\":696:708   */\n      revert\n        /* \"#utility.yul\":658:660   */\n    tag_72:\n        /* \"#utility.yul\":749:750   */\n      0x00\n        /* \"#utility.yul\":774:827   */\n      tag_73\n        /* \"#utility.yul\":819:826   */\n      dup6\n        /* \"#utility.yul\":810:816   */\n      dup3\n        /* \"#utility.yul\":799:808   */\n      dup7\n        /* \"#utility.yul\":795:817   */\n      add\n        /* \"#utility.yul\":774:827   */\n      tag_60\n      jump\t// in\n    tag_73:\n        /* \"#utility.yul\":764:827   */\n      swap3\n      pop\n        /* \"#utility.yul\":720:837   */\n      pop\n        /* \"#utility.yul\":876:878   */\n      0x20\n        /* \"#utility.yul\":902:955   */\n      tag_74\n        /* \"#utility.yul\":947:954   */\n      dup6\n        /* \"#utility.yul\":938:944   */\n      dup3\n        /* \"#utility.yul\":927:936   */\n      dup7\n        /* \"#utility.yul\":923:945   */\n      add\n        /* \"#utility.yul\":902:955   */\n      tag_64\n      jump\t// in\n    tag_74:\n        /* \"#utility.yul\":892:955   */\n      swap2\n      pop\n        /* \"#utility.yul\":847:965   */\n      pop\n        /* \"#utility.yul\":648:972   */\n      swap3\n      pop\n      swap3\n      swap1\n      pop\n      jump\t// out\n        /* \"#utility.yul\":978:1342   */\n    tag_75:\n      0x00\n        /* \"#utility.yul\":1094:1133   */\n      tag_77\n        /* \"#utility.yul\":1127:1132   */\n      dup3\n        /* \"#utility.yul\":1094:1133   */\n      tag_78\n      jump\t// in\n    tag_77:\n        /* \"#utility.yul\":1149:1220   */\n      tag_79\n        /* \"#utility.yul\":1213:1219   */\n      dup2\n        /* \"#utility.yul\":1208:1211   */\n      dup6\n        /* \"#utility.yul\":1149:1220   */\n      tag_80\n      jump\t// in\n    tag_79:\n        /* \"#utility.yul\":1142:1220   */\n      swap4\n      pop\n        /* \"#utility.yul\":1229:1281   */\n      tag_81\n        /* \"#utility.yul\":1274:1280   */\n      dup2\n        /* \"#utility.yul\":1269:1272   */\n      dup6\n        /* \"#utility.yul\":1262:1266   */\n      0x20\n        /* \"#utility.yul\":1255:1260   */\n      dup7\n        /* \"#utility.yul\":1251:1267   */\n      add\n        /* \"#utility.yul\":1229:1281   */\n      tag_82\n      jump\t// in\n    tag_81:\n        /* \"#utility.yul\":1306:1335   */\n      tag_83\n        /* \"#utility.yul\":1328:1334   */\n      dup2\n        /* \"#utility.yul\":1306:1335   */\n      tag_84\n      jump\t// in\n    tag_83:\n        /* \"#utility.yul\":1301:1304   */\n      dup5\n        /* \"#utility.yul\":1297:1336   */\n      add\n        /* \"#utility.yul\":1290:1336   */\n      swap2\n      pop\n        /* \"#utility.yul\":1070:1342   */\n      pop\n      swap3\n      swap2\n      pop\n      pop\n      jump\t// out\n        /* \"#utility.yul\":1348:1661   */\n    tag_85:\n      0x00\n        /* \"#utility.yul\":1511:1578   */\n      tag_87\n        /* \"#utility.yul\":1575:1577   */\n      0x0f\n        /* \"#utility.yul\":1570:1573   */\n      dup4\n        /* \"#utility.yul\":1511:1578   */\n      tag_80\n      jump\t// in\n    tag_87:\n        /* \"#utility.yul\":1504:1578   */\n      swap2\n      pop\n        /* \"#utility.yul\":1608:1625   */\n      0x496e76616c696420616464726573730000000000000000000000000000000000\n        /* \"#utility.yul\":1604:1605   */\n      0x00\n        /* \"#utility.yul\":1599:1602   */\n      dup4\n        /* \"#utility.yul\":1595:1606   */\n      add\n        /* \"#utility.yul\":1588:1626   */\n      mstore\n        /* \"#utility.yul\":1652:1654   */\n      0x20\n        /* \"#utility.yul\":1647:1650   */\n      dup3\n        /* \"#utility.yul\":1643:1655   */\n      add\n        /* \"#utility.yul\":1636:1655   */\n      swap1\n      pop\n        /* \"#utility.yul\":1494:1661   */\n      swap2\n      swap1\n      pop\n      jump\t// out\n        /* \"#utility.yul\":1667:1985   */\n    tag_88:\n      0x00\n        /* \"#utility.yul\":1830:1897   */\n      tag_90\n        /* \"#utility.yul\":1894:1896   */\n      0x14\n        /* \"#utility.yul\":1889:1892   */\n      dup4\n        /* \"#utility.yul\":1830:1897   */\n      tag_80\n      jump\t// in\n    tag_90:\n        /* \"#utility.yul\":1823:1897   */\n      swap2\n      pop\n        /* \"#utility.yul\":1927:1949   */\n      0x496e73756666696369656e742062616c616e6365000000000000000000000000\n        /* \"#utility.yul\":1923:1924   */\n      0x00\n        /* \"#utility.yul\":1918:1921   */\n      dup4\n        /* \"#utility.yul\":1914:1925   */\n      add\n        /* \"#utility.yul\":1907:1950   */\n      mstore\n        /* \"#utility.yul\":1976:1978   */\n      0x20\n        /* \"#utility.yul\":1971:1974   */\n      dup3\n        /* \"#utility.yul\":1967:1979   */\n      add\n        /* \"#utility.yul\":1960:1979   */\n      swap1\n      pop\n        /* \"#utility.yul\":1813:1985   */\n      swap2\n      swap1\n      pop\n      jump\t// out\n        /* \"#utility.yul\":1991:2109   */\n    tag_91:\n        /* \"#utility.yul\":2078:2102   */\n      tag_93\n        /* \"#utility.yul\":2096:2101   */\n      dup2\n        /* \"#utility.yul\":2078:2102   */\n      tag_94\n      jump\t// in\n    tag_93:\n        /* \"#utility.yul\":2073:2076   */\n      dup3\n        /* \"#utility.yul\":2066:2103   */\n      mstore\n        /* \"#utility.yul\":2056:2109   */\n      pop\n      pop\n      jump\t// out\n        /* \"#utility.yul\":2115:2428   */\n    tag_12:\n      0x00\n        /* \"#utility.yul\":2266:2268   */\n      0x20\n        /* \"#utility.yul\":2255:2264   */\n      dup3\n        /* \"#utility.yul\":2251:2269   */\n      add\n        /* \"#utility.yul\":2243:2269   */\n      swap1\n      pop\n        /* \"#utility.yul\":2315:2324   */\n      dup2\n        /* \"#utility.yul\":2309:2313   */\n      dup2\n        /* \"#utility.yul\":2305:2325   */\n      sub\n        /* \"#utility.yul\":2301:2302   */\n      0x00\n        /* \"#utility.yul\":2290:2299   */\n      dup4\n        /* \"#utility.yul\":2286:2303   */\n      add\n        /* \"#utility.yul\":2279:2326   */\n      mstore\n        /* \"#utility.yul\":2343:2421   */\n      tag_96\n        /* \"#utility.yul\":2416:2420   */\n      dup2\n        /* \"#utility.yul\":2407:2413   */\n      dup5\n        /* \"#utility.yul\":2343:2421   */\n      tag_75\n      jump\t// in\n    tag_96:\n        /* \"#utility.yul\":2335:2421   */\n      swap1\n      pop\n        /* \"#utility.yul\":2233:2428   */\n      swap3\n      swap2\n      pop\n      pop\n      jump\t// out\n        /* \"#utility.yul\":2434:2853   */\n    tag_41:\n      0x00\n        /* \"#utility.yul\":2638:2640   */\n      0x20\n        /* \"#utility.yul\":2627:2636   */\n      dup3\n        /* \"#utility.yul\":2623:2641   */\n      add\n        /* \"#utility.yul\":2615:2641   */\n      swap1\n      pop\n        /* \"#utility.yul\":2687:2696   */\n      dup2\n        /* \"#utility.yul\":2681:2685   */\n      dup2\n        /* \"#utility.yul\":2677:2697   */\n      sub\n        /* \"#utility.yul\":2673:2674   */\n      0x00\n        /* \"#utility.yul\":2662:2671   */\n      dup4\n        /* \"#utility.yul\":2658:2675   */\n      add\n        /* \"#utility.yul\":2651:2698   */\n      mstore\n        /* \"#utility.yul\":2715:2846   */\n      tag_98\n        /* \"#utility.yul\":2841:2845   */\n      dup2\n        /* \"#utility.yul\":2715:2846   */\n      tag_85\n      jump\t// in\n    tag_98:\n        /* \"#utility.yul\":2707:2846   */\n      swap1\n      pop\n        /* \"#utility.yul\":2605:2853   */\n      swap2\n      swap1\n      pop\n      jump\t// out\n        /* \"#utility.yul\":2859:3278   */\n    tag_55:\n      0x00\n        /* \"#utility.yul\":3063:3065   */\n      0x20\n        /* \"#utility.yul\":3052:3061   */\n      dup3\n        /* \"#utility.yul\":3048:3066   */\n      add\n        /* \"#utility.yul\":3040:3066   */\n      swap1\n      pop\n        /* \"#utility.yul\":3112:3121   */\n      dup2\n        /* \"#utility.yul\":3106:3110   */\n      dup2\n        /* \"#utility.yul\":3102:3122   */\n      sub\n        /* \"#utility.yul\":3098:3099   */\n      0x00\n        /* \"#utility.yul\":3087:3096   */\n      dup4\n        /* \"#utility.yul\":3083:3100   */\n      add\n        /* \"#utility.yul\":3076:3123   */\n      mstore\n        /* \"#utility.yul\":3140:3271   */\n      tag_100\n        /* \"#utility.yul\":3266:3270   */\n      dup2\n        /* \"#utility.yul\":3140:3271   */\n      tag_88\n      jump\t// in\n    tag_100:\n        /* \"#utility.yul\":3132:3271   */\n      swap1\n      pop\n        /* \"#utility.yul\":3030:3278   */\n      swap2\n      swap1\n      pop\n      jump\t// out\n        /* \"#utility.yul\":3284:3506   */\n    tag_16:\n      0x00\n        /* \"#utility.yul\":3415:3417   */\n      0x20\n        /* \"#utility.yul\":3404:3413   */\n      dup3\n        /* \"#utility.yul\":3400:3418   */\n      add\n        /* \"#utility.yul\":3392:3418   */\n      swap1\n      pop\n        /* \"#utility.yul\":3428:3499   */\n      tag_102\n        /* \"#utility.yul\":3496:3497   */\n      0x00\n        /* \"#utility.yul\":3485:3494   */\n      dup4\n        /* \"#utility.yul\":3481:3498   */\n      add\n        /* \"#utility.yul\":3472:3478   */\n      dup5\n        /* \"#utility.yul\":3428:3499   */\n      tag_91\n      jump\t// in\n    tag_102:\n        /* \"#utility.yul\":3382:3506   */\n      swap3\n      swap2\n      pop\n      pop\n      jump\t// out\n        /* \"#utility.yul\":3512:3611   */\n    tag_78:\n      0x00\n        /* \"#utility.yul\":3598:3603   */\n      dup2\n        /* \"#utility.yul\":3592:3604   */\n      mload\n        /* \"#utility.yul\":3582:3604   */\n      swap1\n      pop\n        /* \"#utility.yul\":3571:3611   */\n      swap2\n      swap1\n      pop\n      jump\t// out\n        /* \"#utility.yul\":3617:3786   */\n    tag_80:\n      0x00\n        /* \"#utility.yul\":3735:3741   */\n      dup3\n        /* \"#utility.yul\":3730:3733   */\n      dup3\n        /* \"#utility.yul\":3723:3742   */\n      mstore\n        /* \"#utility.yul\":3775:3779   */\n      0x20\n        /* \"#utility.yul\":3770:3773   */\n      dup3\n        /* \"#utility.yul\":3766:3780   */\n      add\n        /* \"#utility.yul\":3751:3780   */\n      swap1\n      pop\n        /* \"#utility.yul\":3713:3786   */\n      swap3\n      swap2\n      pop\n      pop\n      jump\t// out\n        /* \"#utility.yul\":3792:4097   */\n    tag_43:\n      0x00\n        /* \"#utility.yul\":3851:3871   */\n      tag_106\n        /* \"#utility.yul\":3869:3870   */\n      dup3\n        /* \"#utility.yul\":3851:3871   */\n      tag_94\n      jump\t// in\n    tag_106:\n        /* \"#utility.yul\":3846:3871   */\n      swap2\n      pop\n        /* \"#utility.yul\":3885:3905   */\n      tag_107\n        /* \"#utility.yul\":3903:3904   */\n      dup4\n        /* \"#utility.yul\":3885:3905   */\n      tag_94\n      jump\t// in\n    tag_107:\n        /* \"#utility.yul\":3880:3905   */\n      swap3\n      pop\n        /* \"#utility.yul\":4039:4040   */\n      dup3\n        /* \"#utility.yul\":3971:4037   */\n      0xffffffffffffffffffffffffffffffffffffffffffffffffffffffffffffffff\n        /* \"#utility.yul\":3967:4041   */\n      sub\n        /* \"#utility.yul\":3964:3965   */\n      dup3\n        /* \"#utility.yul\":3961:4042   */\n      gt\n        /* \"#utility.yul\":3958:3960   */\n      iszero\n      tag_108\n      jumpi\n        /* \"#utility.yul\":4045:4063   */\n      tag_109\n      tag_110\n      jump\t// in\n    tag_109:\n        /* \"#utility.yul\":3958:3960   */\n    tag_108:\n        /* \"#utility.yul\":4089:4090   */\n      dup3\n        /* \"#utility.yul\":4086:4087   */\n      dup3\n        /* \"#utility.yul\":4082:4091   */\n      add\n        /* \"#utility.yul\":4075:4091   */\n      swap1\n      pop\n        /* \"#utility.yul\":3836:4097   */\n      swap3\n      swap2\n      pop\n      pop\n      jump\t// out\n        /* \"#utility.yul\":4103:4294   */\n    tag_57:\n      0x00\n        /* \"#utility.yul\":4163:4183   */\n      tag_112\n        /* \"#utility.yul\":4181:4182   */\n      dup3\n        /* \"#utility.yul\":4163:4183   */\n      tag_94\n      jump\t// in\n    tag_112:\n        /* \"#utility.yul\":4158:4183   */\n      swap2\n      pop\n        /* \"#utility.yul\":4197:4217   */\n      tag_113\n        /* \"#utility.yul\":4215:4216   */\n      dup4\n        /* \"#utility.yul\":4197:4217   */\n      tag_94\n      jump\t// in\n    tag_113:\n        /* \"#utility.yul\":4192:4217   */\n      swap3\n      pop\n        /* \"#utility.yul\":4236:4237   */\n      dup3\n        /* \"#utility.yul\":4233:4234   */\n      dup3\n        /* \"#utility.yul\":4230:4238   */\n      lt\n        /* \"#utility.yul\":4227:4229   */\n      iszero\n      tag_114\n      jumpi\n        /* \"#utility.yul\":4241:4259   */\n      tag_115\n      tag_110\n      jump\t// in\n    tag_115:\n        /* \"#utility.yul\":4227:4229   */\n    tag_114:\n        /* \"#utility.yul\":4286:4287   */\n      dup3\n        /* \"#utility.yul\":4283:4284   */\n      dup3\n        /* \"#utility.yul\":4279:4288   */\n      sub\n        /* \"#utility.yul\":4271:4288   */\n      swap1\n      pop\n        /* \"#utility.yul\":4148:4294   */\n      swap3\n      swap2\n      pop\n      pop\n      jump\t// out\n        /* \"#utility.yul\":4300:4396   */\n    tag_116:\n      0x00\n        /* \"#utility.yul\":4366:4390   */\n      tag_118\n        /* \"#utility.yul\":4384:4389   */\n      dup3\n        /* \"#utility.yul\":4366:4390   */\n      tag_119\n      jump\t// in\n    tag_118:\n        /* \"#utility.yul\":4355:4390   */\n      swap1\n      pop\n        /* \"#utility.yul\":4345:4396   */\n      swap2\n      swap1\n      pop\n      jump\t// out\n        /* \"#utility.yul\":4402:4528   */\n    tag_119:\n      0x00\n        /* \"#utility.yul\":4479:4521   */\n      0xffffffffffffffffffffffffffffffffffffffff\n        /* \"#utility.yul\":4472:4477   */\n      dup3\n        /* \"#utility.yul\":4468:4522   */\n      and\n        /* \"#utility.yul\":4457:4522   */\n      swap1\n      pop\n        /* \"#utility.yul\":4447:4528   */\n      swap2\n      swap1\n      pop\n      jump\t// out\n        /* \"#utility.yul\":4534:4611   */\n    tag_94:\n      0x00\n        /* \"#utility.yul\":4600:4605   */\n      dup2\n        /* \"#utility.yul\":4589:4605   */\n      swap1\n      pop\n        /* \"#utility.yul\":4579:4611   */\n      swap2\n      swap1\n      pop\n      jump\t// out\n        /* \"#utility.yul\":4617:4924   */\n    tag_82:\n        /* \"#utility.yul\":4685:4686   */\n      0x00\n        /* \"#utility.yul\":4695:4808   */\n    tag_123:\n        /* \"#utility.yul\":4709:4715   */\n      dup4\n        /* \"#utility.yul\":4706:4707   */\n      dup2\n        /* \"#utility.yul\":4703:4716   */\n      lt\n        /* \"#utility.yul\":4695:4808   */\n      iszero\n      tag_125\n      jumpi\n        /* \"#utility.yul\":4794:4795   */\n      dup1\n        /* \"#utility.yul\":4789:4792   */\n      dup3\n        /* \"#utility.yul\":4785:4796   */\n      add\n        /* \"#utility.yul\":4779:4797   */\n      mload\n        /* \"#utility.yul\":4775:4776   */\n      dup2\n        /* \"#utility.yul\":4770:4773   */\n      dup5\n        /* \"#utility.yul\":4766:4777   */\n      add\n        /* \"#utility.yul\":4759:4798   */\n      mstore\n        /* \"#utility.yul\":4731:4733   */\n      0x20\n        /* \"#utility.yul\":4728:4729   */\n      dup2\n        /* \"#utility.yul\":4724:4734   */\n      add\n        /* \"#utility.yul\":4719:4734   */\n      swap1\n      pop\n        /* \"#utility.yul\":4695:4808   */\n      jump(tag_123)\n    tag_125:\n        /* \"#utility.yul\":4826:4832   */\n      dup4\n        /* \"#utility.yul\":4823:4824   */\n      dup2\n        /* \"#utility.yul\":4820:4833   */\n      gt\n        /* \"#utility.yul\":4817:4819   */\n      iszero\n      tag_126\n      jumpi\n        /* \"#utility.yul\":4906:4907   */\n      0x00\n        /* \"#utility.yul\":4897:4903   */\n      dup5\n        /* \"#utility.yul\":4892:4895   */\n      dup5\n        /* \"#utility.yul\":4888:4904   */\n      add\n        /* \"#utility.yul\":4881:4908   */\n      mstore\n        /* \"#utility.yul\":4817:4819   */\n    tag_126:\n        /* \"#utility.yul\":4666:4924   */\n      pop\n      pop\n      pop\n      pop\n      jump\t// out\n        /* \"#utility.yul\":4930:5250   */\n    tag_33:\n      0x00\n        /* \"#utility.yul\":5011:5012   */\n      0x02\n        /* \"#utility.yul\":5005:5009   */\n      dup3\n        /* \"#utility.yul\":5001:5013   */\n      div\n        /* \"#utility.yul\":4991:5013   */\n      swap1\n      pop\n        /* \"#utility.yul\":5058:5059   */\n      0x01\n        /* \"#utility.yul\":5052:5056   */\n      dup3\n        /* \"#utility.yul\":5048:5060   */\n      and\n        /* \"#utility.yul\":5079:5097   */\n      dup1\n        /* \"#utility.yul\":5069:5071   */\n      tag_128\n      jumpi\n        /* \"#utility.yul\":5135:5139   */\n      0x7f\n        /* \"#utility.yul\":5127:5133   */\n      dup3\n        /* \"#utility.yul\":5123:5140   */\n      and\n        /* \"#utility.yul\":5113:5140   */\n      swap2\n      pop\n        /* \"#utility.yul\":5069:5071   */\n    tag_128:\n        /* \"#utility.yul\":5197:5199   */\n      0x20\n        /* \"#utility.yul\":5189:5195   */\n      dup3\n        /* \"#utility.yul\":5186:5200   */\n      lt\n        /* \"#utility.yul\":5166:5184   */\n      dup2\n        /* \"#utility.yul\":5163:5201   */\n      eq\n        /* \"#utility.yul\":5160:5162   */\n      iszero\n      tag_129\n      jumpi\n        /* \"#utility.yul\":5216:5234   */\n      tag_130\n      tag_131\n      jump\t// in\n    tag_130:\n        /* \"#utility.yul\":5160:5162   */\n    tag_129:\n        /* \"#utility.yul\":4981:5250   */\n      pop\n      swap2\n      swap1\n      pop\n      jump\t// out\n        /* \"#utility.yul\":5256:5436   */\n    tag_110:\n        /* \"#utility.yul\":5304:5381   */\n      0x4e487b7100000000000000000000000000000000000000000000000000000000\n        /* \"#utility.yul\":5301:5302   */\n      0x00\n        /* \"#utility.yul\":5294:5382   */\n      mstore\n        /* \"#utility.yul\":5401:5405   */\n      0x11\n        /* \"#utility.yul\":5398:5399   */\n      0x04\n        /* \"#utility.yul\":5391:5406   */\n      mstore\n        /* \"#utility.yul\":5425:5429   */\n      0x24\n        /* \"#utility.yul\":5422:5423   */\n      0x00\n        /* \"#utility.yul\":5415:5430   */\n      revert\n        /* \"#utility.yul\":5442:5622   */\n    tag_131:\n        /* \"#utility.yul\":5490:5567   */\n      0x4e487b7100000000000000000000000000000000000000000000000000000000\n        /* \"#utility.yul\":5487:5488   */\n      0x00\n        /* \"#utility.yul\":5480:5568   */\n      mstore\n        /* \"#utility.yul\":5587:5591   */\n      0x22\n        /* \"#utility.yul\":5584:5585   */\n      0x04\n        /* \"#utility.yul\":5577:5592   */\n      mstore\n        /* \"#utility.yul\":5611:5615   */\n      0x24\n        /* \"#utility.yul\":5608:5609   */\n      0x00\n        /* \"#utility.yul\":5601:5616   */\n      revert\n        /* \"#utility.yul\":5628:5730   */\n    tag_84:\n      0x00\n        /* \"#utility.yul\":5720:5722   */\n      0x1f\n        /* \"#utility.yul\":5716:5723   */\n      not\n        /* \"#utility.yul\":5711:5713   */\n      0x1f\n        /* \"#utility.yul\":5704:5709   */\n      dup4\n        /* \"#utility.yul\":5700:5714   */\n      add\n        /* \"#utility.yul\":5696:5724   */\n      and\n        /* \"#utility.yul\":5686:5724   */\n      swap1\n      pop\n        /* \"#utility.yul\":5676:5730   */\n      swap2\n      swap1\n      pop\n      jump\t// out\n        /* \"#utility.yul\":5736:5858   */\n    tag_63:\n        /* \"#utility.yul\":5809:5833   */\n      tag_136\n        /* \"#utility.yul\":5827:5832   */\n      dup2\n        /* \"#utility.yul\":5809:5833   */\n      tag_116\n      jump\t// in\n    tag_136:\n        /* \"#utility.yul\":5802:5807   */\n      dup2\n        /* \"#utility.yul\":5799:5834   */\n      eq\n        /* \"#utility.yul\":5789:5791   */\n      tag_137\n      jumpi\n        /* \"#utility.yul\":5848:5849   */\n      0x00\n        /* \"#utility.yul\":5845:5846   */\n      dup1\n        /* \"#utility.yul\":5838:5850   */\n      revert\n        /* \"#utility.yul\":5789:5791   */\n    tag_137:\n        /* \"#utility.yul\":5779:5858   */\n      pop\n      jump\t// out\n        /* \"#utility.yul\":5864:5986   */\n    tag_67:\n        /* \"#utility.yul\":5937:5961   */\n      tag_139\n        /* \"#utility.yul\":5955:5960   */\n      dup2\n        /* \"#utility.yul\":5937:5961   */\n      tag_94\n      jump\t// in\n    tag_139:\n        /* \"#utility.yul\":5930:5935   */\n      dup2\n        /* \"#utility.yul\":5927:5962   */\n      eq\n        /* \"#utility.yul\":5917:5919   */\n      tag_140\n      jumpi\n        /* \"#utility.yul\":5976:5977   */\n      0x00\n        /* \"#utility.yul\":5973:5974   */\n      dup1\n        /* \"#utility.yul\":5966:5978   */\n      revert\n        /* \"#utility.yul\":5917:5919   */\n    tag_140:\n        /* \"#utility.yul\":5907:5986   */\n      pop\n      jump\t// out\n\n    auxdata: 0xa2646970667358221220577a94d30e8bc8a5e7a31b7b804670928e7c2b13c20c63692aaaf5cce83976a264736f6c63430008000033\n}\n",
				"bytecode": {
					"linkReferences": {},
					"object": "60806040523480156200001157600080fd5b5060405162000c7c38038062000c7c8339818101604052810190620000379190620001f6565b82600090805190602001906200004f929190620000bd565b50816001908051906020019062000068929190620000bd565b508060028190555080600360003373ffffffffffffffffffffffffffffffffffffffff1673ffffffffffffffffffffffffffffffffffffffff16815260200190815260200160002081905550505050620003d3565b828054620000cb9062000325565b90600052602060002090601f016020900481019282620000ef57600085556200013b565b82601f106200010a57805160ff19168380011785556200013b565b828001600101855582156200013b579182015b828111156200013a5782518255916020019190600101906200011d565b5b5090506200014a91906200014e565b5090565b5b80821115620001695760008160009055506001016200014f565b5090565b6000620001846200017e84620002b2565b6200027e565b9050828152602081018484840111156200019d57600080fd5b620001aa848285620002ef565b509392505050565b600082601f830112620001c457600080fd5b8151620001d68482602086016200016d565b91505092915050565b600081519050620001f081620003b9565b92915050565b6000806000606084860312156200020c57600080fd5b600084015167ffffffffffffffff8111156200022757600080fd5b6200023586828701620001b2565b935050602084015167ffffffffffffffff8111156200025357600080fd5b6200026186828701620001b2565b92505060406200027486828701620001df565b9150509250925092565b6000604051905081810181811067ffffffffffffffff82111715620002a857620002a76200038a565b5b8060405250919050565b600067ffffffffffffffff821115620002d057620002cf6200038a565b5b601f19601f8301169050602081019050919050565b6000819050919050565b60005b838110156200030f578082015181840152602081019050620002f2565b838111156200031f576000848401525b50505050565b600060028204905060018216806200033e57607f821691505b602082108114156200035557620003546200035b565b5b50919050565b7f4e487b7100000000000000000000000000000000000000000000000000000000600052602260045260246000fd5b7f4e487b7100000000000000000000000000000000000000000000000000000000600052604160045260246000fd5b620003c481620002e5565b8114620003d057600080fd5b50565b61089980620003e36000396000f3fe608060405234801561001057600080fd5b50600436106100625760003560e01c806306fdde031461006757806318160ddd1461008557806327e235e3146100a357806340c10f19146100d357806395d89b41146100ef5780639dc29fac1461010d575b600080fd5b61006f610129565b60405161007c9190610602565b60405180910390f35b61008d6101b7565b60405161009a9190610664565b60405180910390f35b6100bd60048036038101906100b891906104d5565b6101bd565b6040516100ca9190610664565b60405180910390f35b6100ed60048036038101906100e891906104fe565b6101d5565b005b6100f76102b8565b6040516101049190610602565b60405180910390f35b610127600480360381019061012291906104fe565b610346565b005b6000805461013690610794565b80601f016020809104026020016040519081016040528092919081815260200182805461016290610794565b80156101af5780601f10610184576101008083540402835291602001916101af565b820191906000526020600020905b81548152906001019060200180831161019257829003601f168201915b505050505081565b60025481565b60036020528060005260406000206000915090505481565b600073ffffffffffffffffffffffffffffffffffffffff168273ffffffffffffffffffffffffffffffffffffffff161415610245576040517f08c379a000000000000000000000000000000000000000000000000000000000815260040161023c90610624565b60405180910390fd5b8060026000828254610257919061069b565b9250508190555080600360008473ffffffffffffffffffffffffffffffffffffffff1673ffffffffffffffffffffffffffffffffffffffff16815260200190815260200160002060008282546102ad919061069b565b925050819055505050565b600180546102c590610794565b80601f01602080910402602001604051908101604052809291908181526020018280546102f190610794565b801561033e5780601f106103135761010080835404028352916020019161033e565b820191906000526020600020905b81548152906001019060200180831161032157829003601f168201915b505050505081565b600073ffffffffffffffffffffffffffffffffffffffff168273ffffffffffffffffffffffffffffffffffffffff1614156103b6576040517f08c379a00000000000000000000000000000000000000000000000000000000081526004016103ad90610624565b60405180910390fd5b80600360008473ffffffffffffffffffffffffffffffffffffffff1673ffffffffffffffffffffffffffffffffffffffff168152602001908152602001600020541015610438576040517f08c379a000000000000000000000000000000000000000000000000000000000815260040161042f90610644565b60405180910390fd5b806002600082825461044a91906106f1565b9250508190555080600360008473ffffffffffffffffffffffffffffffffffffffff1673ffffffffffffffffffffffffffffffffffffffff16815260200190815260200160002060008282546104a091906106f1565b925050819055505050565b6000813590506104ba81610835565b92915050565b6000813590506104cf8161084c565b92915050565b6000602082840312156104e757600080fd5b60006104f5848285016104ab565b91505092915050565b6000806040838503121561051157600080fd5b600061051f858286016104ab565b9250506020610530858286016104c0565b9150509250929050565b60006105458261067f565b61054f818561068a565b935061055f818560208601610761565b61056881610824565b840191505092915050565b6000610580600f8361068a565b91507f496e76616c6964206164647265737300000000000000000000000000000000006000830152602082019050919050565b60006105c060148361068a565b91507f496e73756666696369656e742062616c616e63650000000000000000000000006000830152602082019050919050565b6105fc81610757565b82525050565b6000602082019050818103600083015261061c818461053a565b905092915050565b6000602082019050818103600083015261063d81610573565b9050919050565b6000602082019050818103600083015261065d816105b3565b9050919050565b600060208201905061067960008301846105f3565b92915050565b600081519050919050565b600082825260208201905092915050565b60006106a682610757565b91506106b183610757565b9250827fffffffffffffffffffffffffffffffffffffffffffffffffffffffffffffffff038211156106e6576106e56107c6565b5b828201905092915050565b60006106fc82610757565b915061070783610757565b92508282101561071a576107196107c6565b5b828203905092915050565b600061073082610737565b9050919050565b600073ffffffffffffffffffffffffffffffffffffffff82169050919050565b6000819050919050565b60005b8381101561077f578082015181840152602081019050610764565b8381111561078e576000848401525b50505050565b600060028204905060018216806107ac57607f821691505b602082108114156107c0576107bf6107f5565b5b50919050565b7f4e487b7100000000000000000000000000000000000000000000000000000000600052601160045260246000fd5b7f4e487b7100000000000000000000000000000000000000000000000000000000600052602260045260246000fd5b6000601f19601f8301169050919050565b61083e81610725565b811461084957600080fd5b50565b61085581610757565b811461086057600080fd5b5056fea2646970667358221220577a94d30e8bc8a5e7a31b7b804670928e7c2b13c20c63692aaaf5cce83976a264736f6c63430008000033",
					"opcodes": "PUSH1 0x80 PUSH1 0x40 MSTORE CALLVALUE DUP1 ISZERO PUSH3 0x11 JUMPI PUSH1 0x0 DUP1 REVERT JUMPDEST POP PUSH1 0x40 MLOAD PUSH3 0xC7C CODESIZE SUB DUP1 PUSH3 0xC7C DUP4 CODECOPY DUP2 DUP2 ADD PUSH1 0x40 MSTORE DUP2 ADD SWAP1 PUSH3 0x37 SWAP2 SWAP1 PUSH3 0x1F6 JUMP JUMPDEST DUP3 PUSH1 0x0 SWAP1 DUP1 MLOAD SWAP1 PUSH1 0x20 ADD SWAP1 PUSH3 0x4F SWAP3 SWAP2 SWAP1 PUSH3 0xBD JUMP JUMPDEST POP DUP2 PUSH1 0x1 SWAP1 DUP1 MLOAD SWAP1 PUSH1 0x20 ADD SWAP1 PUSH3 0x68 SWAP3 SWAP2 SWAP1 PUSH3 0xBD JUMP JUMPDEST POP DUP1 PUSH1 0x2 DUP2 SWAP1 SSTORE POP DUP1 PUSH1 0x3 PUSH1 0x0 CALLER PUSH20 0xFFFFFFFFFFFFFFFFFFFFFFFFFFFFFFFFFFFFFFFF AND PUSH20 0xFFFFFFFFFFFFFFFFFFFFFFFFFFFFFFFFFFFFFFFF AND DUP2 MSTORE PUSH1 0x20 ADD SWAP1 DUP2 MSTORE PUSH1 0x20 ADD PUSH1 0x0 KECCAK256 DUP2 SWAP1 SSTORE POP POP POP POP PUSH3 0x3D3 JUMP JUMPDEST DUP3 DUP1 SLOAD PUSH3 0xCB SWAP1 PUSH3 0x325 JUMP JUMPDEST SWAP1 PUSH1 0x0 MSTORE PUSH1 0x20 PUSH1 0x0 KECCAK256 SWAP1 PUSH1 0x1F ADD PUSH1 0x20 SWAP1 DIV DUP2 ADD SWAP3 DUP3 PUSH3 0xEF JUMPI PUSH1 0x0 DUP6 SSTORE PUSH3 0x13B JUMP JUMPDEST DUP3 PUSH1 0x1F LT PUSH3 0x10A JUMPI DUP1 MLOAD PUSH1 0xFF NOT AND DUP4 DUP1 ADD OR DUP6 SSTORE PUSH3 0x13B JUMP JUMPDEST DUP3 DUP1 ADD PUSH1 0x1 ADD DUP6 SSTORE DUP3 ISZERO PUSH3 0x13B JUMPI SWAP2 DUP3 ADD JUMPDEST DUP3 DUP2 GT ISZERO PUSH3 0x13A JUMPI DUP3 MLOAD DUP3 SSTORE SWAP2 PUSH1 0x20 ADD SWAP2 SWAP1 PUSH1 0x1 ADD SWAP1 PUSH3 0x11D JUMP JUMPDEST JUMPDEST POP SWAP1 POP PUSH3 0x14A SWAP2 SWAP1 PUSH3 0x14E JUMP JUMPDEST POP SWAP1 JUMP JUMPDEST JUMPDEST DUP1 DUP3 GT ISZERO PUSH3 0x169 JUMPI PUSH1 0x0 DUP2 PUSH1 0x0 SWAP1 SSTORE POP PUSH1 0x1 ADD PUSH3 0x14F JUMP JUMPDEST POP SWAP1 JUMP JUMPDEST PUSH1 0x0 PUSH3 0x184 PUSH3 0x17E DUP5 PUSH3 0x2B2 JUMP JUMPDEST PUSH3 0x27E JUMP JUMPDEST SWAP1 POP DUP3 DUP2 MSTORE PUSH1 0x20 DUP2 ADD DUP5 DUP5 DUP5 ADD GT ISZERO PUSH3 0x19D JUMPI PUSH1 0x0 DUP1 REVERT JUMPDEST PUSH3 0x1AA DUP5 DUP3 DUP6 PUSH3 0x2EF JUMP JUMPDEST POP SWAP4 SWAP3 POP POP POP JUMP JUMPDEST PUSH1 0x0 DUP3 PUSH1 0x1F DUP4 ADD SLT PUSH3 0x1C4 JUMPI PUSH1 0x0 DUP1 REVERT JUMPDEST DUP2 MLOAD PUSH3 0x1D6 DUP5 DUP3 PUSH1 0x20 DUP7 ADD PUSH3 0x16D JUMP JUMPDEST SWAP2 POP POP SWAP3 SWAP2 POP POP JUMP JUMPDEST PUSH1 0x0 DUP2 MLOAD SWAP1 POP PUSH3 0x1F0 DUP2 PUSH3 0x3B9 JUMP JUMPDEST SWAP3 SWAP2 POP POP JUMP JUMPDEST PUSH1 0x0 DUP1 PUSH1 0x0 PUSH1 0x60 DUP5 DUP7 SUB SLT ISZERO PUSH3 0x20C JUMPI PUSH1 0x0 DUP1 REVERT JUMPDEST PUSH1 0x0 DUP5 ADD MLOAD PUSH8 0xFFFFFFFFFFFFFFFF DUP2 GT ISZERO PUSH3 0x227 JUMPI PUSH1 0x0 DUP1 REVERT JUMPDEST PUSH3 0x235 DUP7 DUP3 DUP8 ADD PUSH3 0x1B2 JUMP JUMPDEST SWAP4 POP POP PUSH1 0x20 DUP5 ADD MLOAD PUSH8 0xFFFFFFFFFFFFFFFF DUP2 GT ISZERO PUSH3 0x253 JUMPI PUSH1 0x0 DUP1 REVERT JUMPDEST PUSH3 0x261 DUP7 DUP3 DUP8 ADD PUSH3 0x1B2 JUMP JUMPDEST SWAP3 POP POP PUSH1 0x40 PUSH3 0x274 DUP7 DUP3 DUP8 ADD PUSH3 0x1DF JUMP JUMPDEST SWAP2 POP POP SWAP3 POP SWAP3 POP SWAP3 JUMP JUMPDEST PUSH1 0x0 PUSH1 0x40 MLOAD SWAP1 POP DUP2 DUP2 ADD DUP2 DUP2 LT PUSH8 0xFFFFFFFFFFFFFFFF DUP3 GT OR ISZERO PUSH3 0x2A8 JUMPI PUSH3 0x2A7 PUSH3 0x38A JUMP JUMPDEST JUMPDEST DUP1 PUSH1 0x40 MSTORE POP SWAP2 SWAP1 POP JUMP JUMPDEST PUSH1 0x0 PUSH8 0xFFFFFFFFFFFFFFFF DUP3 GT ISZERO PUSH3 0x2D0 JUMPI PUSH3 0x2CF PUSH3 0x38A JUMP JUMPDEST JUMPDEST PUSH1 0x1F NOT PUSH1 0x1F DUP4 ADD AND SWAP1 POP PUSH1 0x20 DUP2 ADD SWAP1 POP SWAP2 SWAP1 POP JUMP JUMPDEST PUSH1 0x0 DUP2 SWAP1 POP SWAP2 SWAP1 POP JUMP JUMPDEST PUSH1 0x0 JUMPDEST DUP4 DUP2 LT ISZERO PUSH3 0x30F JUMPI DUP1 DUP3 ADD MLOAD DUP2 DUP5 ADD MSTORE PUSH1 0x20 DUP2 ADD SWAP1 POP PUSH3 0x2F2 JUMP JUMPDEST DUP4 DUP2 GT ISZERO PUSH3 0x31F JUMPI PUSH1 0x0 DUP5 DUP5 ADD MSTORE JUMPDEST POP POP POP POP JUMP JUMPDEST PUSH1 0x0 PUSH1 0x2 DUP3 DIV SWAP1 POP PUSH1 0x1 DUP3 AND DUP1 PUSH3 0x33E JUMPI PUSH1 0x7F DUP3 AND SWAP2 POP JUMPDEST PUSH1 0x20 DUP3 LT DUP2 EQ ISZERO PUSH3 0x355 JUMPI PUSH3 0x354 PUSH3 0x35B JUMP JUMPDEST JUMPDEST POP SWAP2 SWAP1 POP JUMP JUMPDEST PUSH32 0x4E487B7100000000000000000000000000000000000000000000000000000000 PUSH1 0x0 MSTORE PUSH1 0x22 PUSH1 0x4 MSTORE PUSH1 0x24 PUSH1 0x0 REVERT JUMPDEST PUSH32 0x4E487B7100000000000000000000000000000000000000000000000000000000 PUSH1 0x0 MSTORE PUSH1 0x41 PUSH1 0x4 MSTORE PUSH1 0x24 PUSH1 0x0 REVERT JUMPDEST PUSH3 0x3C4 DUP2 PUSH3 0x2E5 JUMP JUMPDEST DUP2 EQ PUSH3 0x3D0 JUMPI PUSH1 0x0 DUP1 REVERT JUMPDEST POP JUMP JUMPDEST PUSH2 0x899 DUP1 PUSH3 0x3E3 PUSH1 0x0 CODECOPY PUSH1 0x0 RETURN INVALID PUSH1 0x80 PUSH1 0x40 MSTORE CALLVALUE DUP1 ISZERO PUSH2 0x10 JUMPI PUSH1 0x0 DUP1 REVERT JUMPDEST POP PUSH1 0x4 CALLDATASIZE LT PUSH2 0x62 JUMPI PUSH1 0x0 CALLDATALOAD PUSH1 0xE0 SHR DUP1 PUSH4 0x6FDDE03 EQ PUSH2 0x67 JUMPI DUP1 PUSH4 0x18160DDD EQ PUSH2 0x85 JUMPI DUP1 PUSH4 0x27E235E3 EQ PUSH2 0xA3 JUMPI DUP1 PUSH4 0x40C10F19 EQ PUSH2 0xD3 JUMPI DUP1 PUSH4 0x95D89B41 EQ PUSH2 0xEF JUMPI DUP1 PUSH4 0x9DC29FAC EQ PUSH2 0x10D JUMPI JUMPDEST PUSH1 0x0 DUP1 REVERT JUMPDEST PUSH2 0x6F PUSH2 0x129 JUMP JUMPDEST PUSH1 0x40 MLOAD PUSH2 0x7C SWAP2 SWAP1 PUSH2 0x602 JUMP JUMPDEST PUSH1 0x40 MLOAD DUP1 SWAP2 SUB SWAP1 RETURN JUMPDEST PUSH2 0x8D PUSH2 0x1B7 JUMP JUMPDEST PUSH1 0x40 MLOAD PUSH2 0x9A SWAP2 SWAP1 PUSH2 0x664 JUMP JUMPDEST PUSH1 0x40 MLOAD DUP1 SWAP2 SUB SWAP1 RETURN JUMPDEST PUSH2 0xBD PUSH1 0x4 DUP1 CALLDATASIZE SUB DUP2 ADD SWAP1 PUSH2 0xB8 SWAP2 SWAP1 PUSH2 0x4D5 JUMP JUMPDEST PUSH2 0x1BD JUMP JUMPDEST PUSH1 0x40 MLOAD PUSH2 0xCA SWAP2 SWAP1 PUSH2 0x664 JUMP JUMPDEST PUSH1 0x40 MLOAD DUP1 SWAP2 SUB SWAP1 RETURN JUMPDEST PUSH2 0xED PUSH1 0x4 DUP1 CALLDATASIZE SUB DUP2 ADD SWAP1 PUSH2 0xE8 SWAP2 SWAP1 PUSH2 0x4FE JUMP JUMPDEST PUSH2 0x1D5 JUMP JUMPDEST STOP JUMPDEST PUSH2 0xF7 PUSH2 0x2B8 JUMP JUMPDEST PUSH1 0x40 MLOAD PUSH2 0x104 SWAP2 SWAP1 PUSH2 0x602 JUMP JUMPDEST PUSH1 0x40 MLOAD DUP1 SWAP2 SUB SWAP1 RETURN JUMPDEST PUSH2 0x127 PUSH1 0x4 DUP1 CALLDATASIZE SUB DUP2 ADD SWAP1 PUSH2 0x122 SWAP2 SWAP1 PUSH2 0x4FE JUMP JUMPDEST PUSH2 0x346 JUMP JUMPDEST STOP JUMPDEST PUSH1 0x0 DUP1 SLOAD PUSH2 0x136 SWAP1 PUSH2 0x794 JUMP JUMPDEST DUP1 PUSH1 0x1F ADD PUSH1 0x20 DUP1 SWAP2 DIV MUL PUSH1 0x20 ADD PUSH1 0x40 MLOAD SWAP1 DUP2 ADD PUSH1 0x40 MSTORE DUP1 SWAP3 SWAP2 SWAP1 DUP2 DUP2 MSTORE PUSH1 0x20 ADD DUP3 DUP1 SLOAD PUSH2 0x162 SWAP1 PUSH2 0x794 JUMP JUMPDEST DUP1 ISZERO PUSH2 0x1AF JUMPI DUP1 PUSH1 0x1F LT PUSH2 0x184 JUMPI PUSH2 0x100 DUP1 DUP4 SLOAD DIV MUL DUP4 MSTORE SWAP2 PUSH1 0x20 ADD SWAP2 PUSH2 0x1AF JUMP JUMPDEST DUP3 ADD SWAP2 SWAP1 PUSH1 0x0 MSTORE PUSH1 0x20 PUSH1 0x0 KECCAK256 SWAP1 JUMPDEST DUP2 SLOAD DUP2 MSTORE SWAP1 PUSH1 0x1 ADD SWAP1 PUSH1 0x20 ADD DUP1 DUP4 GT PUSH2 0x192 JUMPI DUP3 SWAP1 SUB PUSH1 0x1F AND DUP3 ADD SWAP2 JUMPDEST POP POP POP POP POP DUP2 JUMP JUMPDEST PUSH1 0x2 SLOAD DUP2 JUMP JUMPDEST PUSH1 0x3 PUSH1 0x20 MSTORE DUP1 PUSH1 0x0 MSTORE PUSH1 0x40 PUSH1 0x0 KECCAK256 PUSH1 0x0 SWAP2 POP SWAP1 POP SLOAD DUP2 JUMP JUMPDEST PUSH1 0x0 PUSH20 0xFFFFFFFFFFFFFFFFFFFFFFFFFFFFFFFFFFFFFFFF AND DUP3 PUSH20 0xFFFFFFFFFFFFFFFFFFFFFFFFFFFFFFFFFFFFFFFF AND EQ ISZERO PUSH2 0x245 JUMPI PUSH1 0x40 MLOAD PUSH32 0x8C379A000000000000000000000000000000000000000000000000000000000 DUP2 MSTORE PUSH1 0x4 ADD PUSH2 0x23C SWAP1 PUSH2 0x624 JUMP JUMPDEST PUSH1 0x40 MLOAD DUP1 SWAP2 SUB SWAP1 REVERT JUMPDEST DUP1 PUSH1 0x2 PUSH1 0x0 DUP3 DUP3 SLOAD PUSH2 0x257 SWAP2 SWAP1 PUSH2 0x69B JUMP JUMPDEST SWAP3 POP POP DUP2 SWAP1 SSTORE POP DUP1 PUSH1 0x3 PUSH1 0x0 DUP5 PUSH20 0xFFFFFFFFFFFFFFFFFFFFFFFFFFFFFFFFFFFFFFFF AND PUSH20 0xFFFFFFFFFFFFFFFFFFFFFFFFFFFFFFFFFFFFFFFF AND DUP2 MSTORE PUSH1 0x20 ADD SWAP1 DUP2 MSTORE PUSH1 0x20 ADD PUSH1 0x0 KECCAK256 PUSH1 0x0 DUP3 DUP3 SLOAD PUSH2 0x2AD SWAP2 SWAP1 PUSH2 0x69B JUMP JUMPDEST SWAP3 POP POP DUP2 SWAP1 SSTORE POP POP POP JUMP JUMPDEST PUSH1 0x1 DUP1 SLOAD PUSH2 0x2C5 SWAP1 PUSH2 0x794 JUMP JUMPDEST DUP1 PUSH1 0x1F ADD PUSH1 0x20 DUP1 SWAP2 DIV MUL PUSH1 0x20 ADD PUSH1 0x40 MLOAD SWAP1 DUP2 ADD PUSH1 0x40 MSTORE DUP1 SWAP3 SWAP2 SWAP1 DUP2 DUP2 MSTORE PUSH1 0x20 ADD DUP3 DUP1 SLOAD PUSH2 0x2F1 SWAP1 PUSH2 0x794 JUMP JUMPDEST DUP1 ISZERO PUSH2 0x33E JUMPI DUP1 PUSH1 0x1F LT PUSH2 0x313 JUMPI PUSH2 0x100 DUP1 DUP4 SLOAD DIV MUL DUP4 MSTORE SWAP2 PUSH1 0x20 ADD SWAP2 PUSH2 0x33E JUMP JUMPDEST DUP3 ADD SWAP2 SWAP1 PUSH1 0x0 MSTORE PUSH1 0x20 PUSH1 0x0 KECCAK256 SWAP1 JUMPDEST DUP2 SLOAD DUP2 MSTORE SWAP1 PUSH1 0x1 ADD SWAP1 PUSH1 0x20 ADD DUP1 DUP4 GT PUSH2 0x321 JUMPI DUP3 SWAP1 SUB PUSH1 0x1F AND DUP3 ADD SWAP2 JUMPDEST POP POP POP POP POP DUP2 JUMP JUMPDEST PUSH1 0x0 PUSH20 0xFFFFFFFFFFFFFFFFFFFFFFFFFFFFFFFFFFFFFFFF AND DUP3 PUSH20 0xFFFFFFFFFFFFFFFFFFFFFFFFFFFFFFFFFFFFFFFF AND EQ ISZERO PUSH2 0x3B6 JUMPI PUSH1 0x40 MLOAD PUSH32 0x8C379A000000000000000000000000000000000000000000000000000000000 DUP2 MSTORE PUSH1 0x4 ADD PUSH2 0x3AD SWAP1 PUSH2 0x624 JUMP JUMPDEST PUSH1 0x40 MLOAD DUP1 SWAP2 SUB SWAP1 REVERT JUMPDEST DUP1 PUSH1 0x3 PUSH1 0x0 DUP5 PUSH20 0xFFFFFFFFFFFFFFFFFFFFFFFFFFFFFFFFFFFFFFFF AND PUSH20 0xFFFFFFFFFFFFFFFFFFFFFFFFFFFFFFFFFFFFFFFF AND DUP2 MSTORE PUSH1 0x20 ADD SWAP1 DUP2 MSTORE PUSH1 0x20 ADD PUSH1 0x0 KECCAK256 SLOAD LT ISZERO PUSH2 0x438 JUMPI PUSH1 0x40 MLOAD PUSH32 0x8C379A000000000000000000000000000000000000000000000000000000000 DUP2 MSTORE PUSH1 0x4 ADD PUSH2 0x42F SWAP1 PUSH2 0x644 JUMP JUMPDEST PUSH1 0x40 MLOAD DUP1 SWAP2 SUB SWAP1 REVERT JUMPDEST DUP1 PUSH1 0x2 PUSH1 0x0 DUP3 DUP3 SLOAD PUSH2 0x44A SWAP2 SWAP1 PUSH2 0x6F1 JUMP JUMPDEST SWAP3 POP POP DUP2 SWAP1 SSTORE POP DUP1 PUSH1 0x3 PUSH1 0x0 DUP5 PUSH20 0xFFFFFFFFFFFFFFFFFFFFFFFFFFFFFFFFFFFFFFFF AND PUSH20 0xFFFFFFFFFFFFFFFFFFFFFFFFFFFFFFFFFFFFFFFF AND DUP2 MSTORE PUSH1 0x20 ADD SWAP1 DUP2 MSTORE PUSH1 0x20 ADD PUSH1 0x0 KECCAK256 PUSH1 0x0 DUP3 DUP3 SLOAD PUSH2 0x4A0 SWAP2 SWAP1 PUSH2 0x6F1 JUMP JUMPDEST SWAP3 POP POP DUP2 SWAP1 SSTORE POP POP POP JUMP JUMPDEST PUSH1 0x0 DUP2 CALLDATALOAD SWAP1 POP PUSH2 0x4BA DUP2 PUSH2 0x835 JUMP JUMPDEST SWAP3 SWAP2 POP POP JUMP JUMPDEST PUSH1 0x0 DUP2 CALLDATALOAD SWAP1 POP PUSH2 0x4CF DUP2 PUSH2 0x84C JUMP JUMPDEST SWAP3 SWAP2 POP POP JUMP JUMPDEST PUSH1 0x0 PUSH1 0x20 DUP3 DUP5 SUB SLT ISZERO PUSH2 0x4E7 JUMPI PUSH1 0x0 DUP1 REVERT JUMPDEST PUSH1 0x0 PUSH2 0x4F5 DUP5 DUP3 DUP6 ADD PUSH2 0x4AB JUMP JUMPDEST SWAP2 POP POP SWAP3 SWAP2 POP POP JUMP JUMPDEST PUSH1 0x0 DUP1 PUSH1 0x40 DUP4 DUP6 SUB SLT ISZERO PUSH2 0x511 JUMPI PUSH1 0x0 DUP1 REVERT JUMPDEST PUSH1 0x0 PUSH2 0x51F DUP6 DUP3 DUP7 ADD PUSH2 0x4AB JUMP JUMPDEST SWAP3 POP POP PUSH1 0x20 PUSH2 0x530 DUP6 DUP3 DUP7 ADD PUSH2 0x4C0 JUMP JUMPDEST SWAP2 POP POP SWAP3 POP SWAP3 SWAP1 POP JUMP JUMPDEST PUSH1 0x0 PUSH2 0x545 DUP3 PUSH2 0x67F JUMP JUMPDEST PUSH2 0x54F DUP2 DUP6 PUSH2 0x68A JUMP JUMPDEST SWAP4 POP PUSH2 0x55F DUP2 DUP6 PUSH1 0x20 DUP7 ADD PUSH2 0x761 JUMP JUMPDEST PUSH2 0x568 DUP2 PUSH2 0x824 JUMP JUMPDEST DUP5 ADD SWAP2 POP POP SWAP3 SWAP2 POP POP JUMP JUMPDEST PUSH1 0x0 PUSH2 0x580 PUSH1 0xF DUP4 PUSH2 0x68A JUMP JUMPDEST SWAP2 POP PUSH32 0x496E76616C696420616464726573730000000000000000000000000000000000 PUSH1 0x0 DUP4 ADD MSTORE PUSH1 0x20 DUP3 ADD SWAP1 POP SWAP2 SWAP1 POP JUMP JUMPDEST PUSH1 0x0 PUSH2 0x5C0 PUSH1 0x14 DUP4 PUSH2 0x68A JUMP JUMPDEST SWAP2 POP PUSH32 0x496E73756666696369656E742062616C616E6365000000000000000000000000 PUSH1 0x0 DUP4 ADD MSTORE PUSH1 0x20 DUP3 ADD SWAP1 POP SWAP2 SWAP1 POP JUMP JUMPDEST PUSH2 0x5FC DUP2 PUSH2 0x757 JUMP JUMPDEST DUP3 MSTORE POP POP JUMP JUMPDEST PUSH1 0x0 PUSH1 0x20 DUP3 ADD SWAP1 POP DUP2 DUP2 SUB PUSH1 0x0 DUP4 ADD MSTORE PUSH2 0x61C DUP2 DUP5 PUSH2 0x53A JUMP JUMPDEST SWAP1 POP SWAP3 SWAP2 POP POP JUMP JUMPDEST PUSH1 0x0 PUSH1 0x20 DUP3 ADD SWAP1 POP DUP2 DUP2 SUB PUSH1 0x0 DUP4 ADD MSTORE PUSH2 0x63D DUP2 PUSH2 0x573 JUMP JUMPDEST SWAP1 POP SWAP2 SWAP1 POP JUMP JUMPDEST PUSH1 0x0 PUSH1 0x20 DUP3 ADD SWAP1 POP DUP2 DUP2 SUB PUSH1 0x0 DUP4 ADD MSTORE PUSH2 0x65D DUP2 PUSH2 0x5B3 JUMP JUMPDEST SWAP1 POP SWAP2 SWAP1 POP JUMP JUMPDEST PUSH1 0x0 PUSH1 0x20 DUP3 ADD SWAP1 POP PUSH2 0x679 PUSH1 0x0 DUP4 ADD DUP5 PUSH2 0x5F3 JUMP JUMPDEST SWAP3 SWAP2 POP POP JUMP JUMPDEST PUSH1 0x0 DUP2 MLOAD SWAP1 POP SWAP2 SWAP1 POP JUMP JUMPDEST PUSH1 0x0 DUP3 DUP3 MSTORE PUSH1 0x20 DUP3 ADD SWAP1 POP SWAP3 SWAP2 POP POP JUMP JUMPDEST PUSH1 0x0 PUSH2 0x6A6 DUP3 PUSH2 0x757 JUMP JUMPDEST SWAP2 POP PUSH2 0x6B1 DUP4 PUSH2 0x757 JUMP JUMPDEST SWAP3 POP DUP3 PUSH32 0xFFFFFFFFFFFFFFFFFFFFFFFFFFFFFFFFFFFFFFFFFFFFFFFFFFFFFFFFFFFFFFFF SUB DUP3 GT ISZERO PUSH2 0x6E6 JUMPI PUSH2 0x6E5 PUSH2 0x7C6 JUMP JUMPDEST JUMPDEST DUP3 DUP3 ADD SWAP1 POP SWAP3 SWAP2 POP POP JUMP JUMPDEST PUSH1 0x0 PUSH2 0x6FC DUP3 PUSH2 0x757 JUMP JUMPDEST SWAP2 POP PUSH2 0x707 DUP4 PUSH2 0x757 JUMP JUMPDEST SWAP3 POP DUP3 DUP3 LT ISZERO PUSH2 0x71A JUMPI PUSH2 0x719 PUSH2 0x7C6 JUMP JUMPDEST JUMPDEST DUP3 DUP3 SUB SWAP1 POP SWAP3 SWAP2 POP POP JUMP JUMPDEST PUSH1 0x0 PUSH2 0x730 DUP3 PUSH2 0x737 JUMP JUMPDEST SWAP1 POP SWAP2 SWAP1 POP JUMP JUMPDEST PUSH1 0x0 PUSH20 0xFFFFFFFFFFFFFFFFFFFFFFFFFFFFFFFFFFFFFFFF DUP3 AND SWAP1 POP SWAP2 SWAP1 POP JUMP JUMPDEST PUSH1 0x0 DUP2 SWAP1 POP SWAP2 SWAP1 POP JUMP JUMPDEST PUSH1 0x0 JUMPDEST DUP4 DUP2 LT ISZERO PUSH2 0x77F JUMPI DUP1 DUP3 ADD MLOAD DUP2 DUP5 ADD MSTORE PUSH1 0x20 DUP2 ADD SWAP1 POP PUSH2 0x764 JUMP JUMPDEST DUP4 DUP2 GT ISZERO PUSH2 0x78E JUMPI PUSH1 0x0 DUP5 DUP5 ADD MSTORE JUMPDEST POP POP POP POP JUMP JUMPDEST PUSH1 0x0 PUSH1 0x2 DUP3 DIV SWAP1 POP PUSH1 0x1 DUP3 AND DUP1 PUSH2 0x7AC JUMPI PUSH1 0x7F DUP3 AND SWAP2 POP JUMPDEST PUSH1 0x20 DUP3 LT DUP2 EQ ISZERO PUSH2 0x7C0 JUMPI PUSH2 0x7BF PUSH2 0x7F5 JUMP JUMPDEST JUMPDEST POP SWAP2 SWAP1 POP JUMP JUMPDEST PUSH32 0x4E487B7100000000000000000000000000000000000000000000000000000000 PUSH1 0x0 MSTORE PUSH1 0x11 PUSH1 0x4 MSTORE PUSH1 0x24 PUSH1 0x0 REVERT JUMPDEST PUSH32 0x4E487B7100000000000000000000000000000000000000000000000000000000 PUSH1 0x0 MSTORE PUSH1 0x22 PUSH1 0x4 MSTORE PUSH1 0x24 PUSH1 0x0 REVERT JUMPDEST PUSH1 0x0 PUSH1 0x1F NOT PUSH1 0x1F DUP4 ADD AND SWAP1 POP SWAP2 SWAP1 POP JUMP JUMPDEST PUSH2 0x83E DUP2 PUSH2 0x725 JUMP JUMPDEST DUP2 EQ PUSH2 0x849 JUMPI PUSH1 0x0 DUP1 REVERT JUMPDEST POP JUMP JUMPDEST PUSH2 0x855 DUP2 PUSH2 0x757 JUMP JUMPDEST DUP2 EQ PUSH2 0x860 JUMPI PUSH1 0x0 DUP1 REVERT JUMPDEST POP JUMP INVALID LOG2 PUSH5 0x6970667358 0x22 SLT KECCAK256 JUMPI PUSH27 0x94D30E8BC8A5E7A31B7B804670928E7C2B13C20C63692AAAF5CCE8 CODECOPY PUSH23 0xA264736F6C634300080000330000000000000000000000 "
				},
				"gasEstimates": {
					"creation": {
						"codeDepositCost": "440200",
						"executionCost": "infinite",
						"totalCost": "infinite"
					},
					"external": {
						"balances(address)": "1536",
						"burn(address,uint256)": "infinite",
						"mint(address,uint256)": "infinite",
						"name()": "infinite",
						"symbol()": "infinite",
						"totalSupply()": "1129"
					}
				},
				"methodIdentifiers": {
					"balances(address)": "27e235e3",
					"burn(address,uint256)": "9dc29fac",
					"mint(address,uint256)": "40c10f19",
					"name()": "06fdde03",
					"symbol()": "95d89b41",
					"totalSupply()": "18160ddd"
				}
			},
			"storageLayout": {
				"storage": [
					{
						"astId": 3,
						"contract": "MyToken.sol:MyToken",
						"label": "name",
						"offset": 0,
						"slot": "0",
						"type": "t_string_storage"
					},
					{
						"astId": 5,
						"contract": "MyToken.sol:MyToken",
						"label": "symbol",
						"offset": 0,
						"slot": "1",
						"type": "t_string_storage"
					},
					{
						"astId": 7,
						"contract": "MyToken.sol:MyToken",
						"label": "totalSupply",
						"offset": 0,
						"slot": "2",
						"type": "t_uint256"
					},
					{
						"astId": 11,
						"contract": "MyToken.sol:MyToken",
						"label": "balances",
						"offset": 0,
						"slot": "3",
						"type": "t_mapping(t_address,t_uint256)"
					}
				],
				"types": {
					"t_address": {
						"encoding": "inplace",
						"label": "address",
						"numberOfBytes": "20"
					},
					"t_mapping(t_address,t_uint256)": {
						"encoding": "mapping",
						"key": "t_address",
						"label": "mapping(address => uint256)",
						"numberOfBytes": "32",
						"value": "t_uint256"
					},
					"t_string_storage": {
						"encoding": "bytes",
						"label": "string",
						"numberOfBytes": "32"
					},
					"t_uint256": {
						"encoding": "inplace",
						"label": "uint256",
						"numberOfBytes": "32"
					}
				}
			},
			"userdoc": {
				"kind": "user",
				"methods": {},
				"version": 1
			}
		}
	}
}